S0140000466972737450726F6A6563742E7372656331
S11300000C9472000C9494000C9494000C9494003E
S11300100C9494000C9494000C9494000C9494000C
S11300200C9494000C9494000C9494000C949400FC
S11300300C9494000C9494000C9494000C949400EC
S11300400C9494000C9494000C9494000C949400DC
S11300500C9494000C9494000C9494000C949400CC
S11300600C9494000C9494000C9494000C949400BC
S11300700C9494000C9494000C9494000C949400AC
S11300800C94D8050C9494000C9494000C94940053
S11300900C9494000C9494000C9494000C9494008C
S11300A00C9494000C9494000C9494000C9494007C
S11300B00C9494000C9494000C9494000C9494006C
S11300C00C9494000C9494000C9494000C9494005C
S11300D00C9494000C9494000C9494000C9494004C
S11300E00C94940011241FBECFEFD1E2DEBFCDBF2C
S11300F000E00CBF12E0A0E0B2E0E2EFFEE100E0BD
S11301000BBF02C007900D92A033B107D9F71BBEF5
S11301101AE1A0E3B2E001C01D92A53CB107E1F7EA
S11301200E94E3020C94770F0C9400008FEF84B9C3
S113013085B90895AF92BF92CF92DF92EF92FF926A
S11301400F931F93CF93DF936C01E62EF42E8AE175
S113015090E00E9464038C01009709F462C08091CE
S1130160300290913102009739F5109331020093D7
S11301703002C3E3D2E0CE010E949C03CE01099673
S11301800E949C03C5E4D2E0CE010E949C030F2E82
S1130190FEE4AF2EF2E0BF2EF02DC5010E949C03B9
S11301A087E592E00E949C03D0936102C0936002B1
S11301B0B0926302A0926202CE2DE110C1E0F80178
S11301C0118E108EC68BF78AC192D1927F01CF0116
S11301D00E94AA03C8010C960E94AA03F801118781
S11301E00087138B028B84E090E08C1B9109958728
S11301F08487868990913202981710F48093320292
S113020090E09C01220F331F220F331F220F331F54
S1130210820F931F8D5C9D4FB7010E94AE0381E056
S113022001C08FEFDF91CF911F910F91FF90EF905D
S1130230DF90CF90BF90AF9008950F931F93CF930B
S1130240DF938B01C0916402D0916502C80FD91F5E
S1130250809130029091310202960E941404E09140
S11302603002F0913102D383C28380916402909171
S11302706502C817D90750F4BF016E5F7F4F8091A4
S11302806202909163020E94D70309C0BF016E5FAE
S11302907F4F80916002909161020E94D703011503
S11302A0110549F06091300270913102645F7F4F13
S11302B0C8010E94D703DF91CF911F910F91089538
S11302C0CF92DF92EF92FF920F931F93CF93DF931E
S11302D0809157028823B9F10F2EFCE5EF2EF2E04E
S11302E0FF2EF02D0F2EF7E5CF2EF2E0DF2EF02DAE
S11302F0F894D701ED91FC91C681D781CE010C967B
S11303000E94140478948E010E5F1F4FC8010E944E
S113031014048E8990913202981710F4809332025B
S113032090E09C01220F331F220F331F220F331F33
S1130330820F931F8D5C9D4FB8010E94AE03F6019E
S113034080818823A9F60E946B0B2091660230916C
S11303506702821B930B909369028093680274C0B6
S113036020916402309165022F5F3F4F3093650204
S11303702093640201979093690280936802211587
S1130380310581F4809160029091610220916202B2
S11303903091630230936102209360029093630270
S11303A080936202E0916002F0916102808188236F
S11303B009F44AC00580F681E02DC681D7812A81DF
S11303C03B8180916402909165028217930778F4CF
S11303D03BC00580F681E02DC681D7812A813B810F
S11303E080916402909165028217930768F1F894F2
S11303F08E010E5F1F4FC8010E9414048C899D89D1
S1130400009721F0CE010C960E94140478948E89F2
S113041090913202981710F48093320290E09C017C
S1130420220F331F220F331F220F331F820F931FFC
S11304308D5C9D4FB8010E94AE03E0916002F09183
S113044061028081882329F6809168029091690273
S1130450009709F085CF8091640290916502909392
S113046067028093660220913202822F90E0FC01A1
S1130470EE0FFF1FEE0FFF1FEE0FFF1FE80FF91F18
S1130480ED5CFD4F30813323D9F4222331F447C08E
S1130490222319F42093320242C02150822F90E08B
S11304A0FC01EE0FFF1FEE0FFF1FEE0FFF1FE80F03
S11304B0F91FED5CFD4F3081332351F32093320259
S11304C0FC01EE0FFF1FEE0FFF1FEE0FFF1F8E0F3D
S11304D09F1FFC01ED5CFD4FA181B28112960D902E
S11304E0BC91A02DB283A183CF010396A817B907AD
S11304F031F412968D919C9113979283818301809C
S1130500F281E02DA681B781B0933102A09330022D
S1130510ED91FC911197CD0157966C911995DF914E
S1130520CF911F910F91FF90EF90DF90CF9008959E
S11305300F931F93CF93DF93DC011596ED91FC91FC
S1130540169706811781E8012C96CE010E941404A7
S113055087E592E0BE010E94AE03E0913002F09183
S1130560310281E0D80156962C9156979689291725
S113057008F480E0DF91CF911F910F910895CF93FC
S1130580DF930F920F92CDB7DEB76C01FC010281AD
S113059013810E946B0B9A8389837801F694E79404
S11305A001E010E025B1C801F601008002C0880F07
S11305B0991F0A94E2F7822785B9CE010196B70103
S11305C00E94F30CEFCF8F929F92AF92BF92CF9283
S11305D0DF92EF92FF920F93CF93DF93CDB7DEB705
S11305E060970FB6F894DEBF0FBECDBF1A82198292
S11305F084EF91E09C838B8382E090E09E838D83E3
S11306008AEF90E098878F8384E090E09A878987C7
S11306108DE790E09C878B8786E090E09E878D87AE
S11306208FE390E0988B8F870E9496000F2EFFEB4C
S11306308F2EF2E09F2EF02DC40160E072E045E5BC
S113064050E09E012F5F3F4F01E0EE24FF24CC24B5
S1130650DD24AA24BB240E947909C4016AE072E063
S113066045E550E09E012B5F3F4F02E00E9479096F
S1130670C40164E172E045E550E09E01275F3F4F0D
S113068003E00E947909C4016EE172E045E550E09F
S11306909E01235F3F4F04E00E9479090E94340BBE
S11306A080E090E060960FB6F894DEBF0FBECDBF39
S11306B0DF91CF910F91FF90EF90DF90CF90BF909B
S11306C0AF909F908F9008950F931F93CF93DF93D4
S11306D0EC010E94650B00916A0210916B02C00F3D
S11306E0D11F88E1C030D80750F40C171D0750F40F
S11306F004591D4FD0936B02C0936A0205C000E0F9
S113070010E002C000E010E00E94430C802F912F03
S1130710DF91CF911F910F910895089510926B026C
S113072010926A02089520916A0230916B0280E06F
S113073098E1821B930B0895FC01039692838183B5
S11307402FEF3FEF348323839683858390878783BA
S113075010820895FC01118610860895CF93DF93CB
S1130760EC01FB0189819A81DC0112962D913C9167
S113077013973383228329813A8135832483129604
S11307802D913C911397D90115967C936E931497F0
S1130790DC0113967C936E9312977A836983D187D5
S11307A0C08788818F5F8883DF91CF910895CF932D
S11307B0DF93AC01EB01288139818FEF2F3F38079C
S11307C021F4FA01A781B08518C0DA011396FA0161
S11307D085819681FC01808191812817390768F011
S11307E012960D90BC91A02D1296ED91FC91139749
S11307F0808191812817390798F71296ED91FC9121
S11308001397FB83EA83D583C483BD83AC83139698
S1130810DC93CE93129759874887FA0180818F5FC2
S11308208083DF91CF910895FC01A281B3818481FB
S1130830958115969C938E931497A481B58182819A
S1130840938113969C938E931297A085B1851196EC
S11308508D919C9112978E179F0731F48481958115
S113086012969C938E931197118610868C918150C9
S11308708C938C91089521E1FC012083319732E21D
S11308803083FC013297A3E3A083FC013397608398
S1130890FC0134977083FC0135971082FC01369774
S11308A01082FC01379760E86083FC01389710825E
S11308B0FC0139971082FC013A971082FC013B97A6
S11308C062E06083FC013C9763E06083FC013D9738
S11308D064E06083FC013E9765E06083FC013F9720
S11308E066E06083FC01709767E06083FC017197A8
S11308F068E06083FC01729769E06083FC01739790
S113090060E16083FC0174972083FC01759722E108
S11309102083FC01769723E12083FC01779724E16F
S11309202083FC01789725E12083FC01799726E157
S11309302083FC017A9727E12083FC017B9728E13F
S11309402083FC017C9729E12083FC017D9720E230
S11309502083FC017E9721E22083FC017F97308372
S1130960FC01B09723E22083FC01B1974083FC0192
S1130970B2975083FC01B39726E22083FC01B4971D
S113098027E22083FC01B59728E22083FC01B69777
S113099029E22083FC01B79720E32083FC01B89768
S11309A021E320838997089581E08093990083EF60
S11309B0809398008BE080939100E1E7F0E08081E0
S11309C082608083A0916C1AB0916D1ACD91CDBFD5
S11309D0DD91DEBFFF91EF91DF91CF91BF91AF9198
S11309E09F918F917F916F915F914F913F912F9143
S11309F01F910F91FF90EF90DF90CF90BF90AF9039
S1130A009F908F907F906F905F904F903F902F902A
S1130A101F900F900CBE0F900BBE0F900FBE0F9047
S1130A20089581E0089508950F920FB6F8940F92F7
S1130A300BB60F920CB60F921F9211242F923F9275
S1130A404F925F926F927F928F929F92AF92BF92DA
S1130A50CF92DF92EF92FF920F931F932F933F93C6
S1130A604F935F936F937F938F939F93AF93BF93B2
S1130A70CF93DF93EF93FF93A0916C1AB0916D1A0B
S1130A800DB60D920EB60D920E943D0DA0916C1AFA
S1130A90B0916D1ACD91CDBFDD91DEBFFF91EF9185
S1130AA0DF91CF91BF91AF919F918F917F916F9182
S1130AB05F914F913F912F911F910F91FF90EF9074
S1130AC0DF90CF90BF90AF909F908F907F906F906A
S1130AD05F904F903F902F901F900F900CBE0F90FF
S1130AE00BBE0F900FBE0F9008950F920FB6F8949F
S1130AF00F920BB60F920CB60F921F9211242F92E5
S1130B003F924F925F926F927F928F929F92AF9299
S1130B10BF92CF92DF92EF92FF920F931F932F9386
S1130B203F934F935F936F937F938F939F93AF9371
S1130B30BF93CF93DF93EF93FF93A0916C1AB0917F
S1130B406D1A0DB60D920EB60D920E947D0B0E9489
S1130B503D0DA0916C1AB0916D1ACD91CDBFDD9170
S1130B60DEBFFF91EF91DF91CF91BF91AF919F9144
S1130B708F917F916F915F914F913F912F911F9131
S1130B800F91FF90EF90DF90CF90BF90AF909F9028
S1130B908F907F906F905F904F903F902F901F9019
S1130BA00F900CBE0F900BBE0F900FBE0F900895C8
S1130BB00E9475051895CF93DF93DC01CD91DC91EC
S1130BC01197209721F15C964C915C9716962D9184
S1130BD03C911797240F311D17963C932E9316972B
S1130BE01296ED91FC9113972E173F0720F017965C
S1130BF0DC93CE93169716963C91169717962C91E4
S1130C00862F972F632F722F50E00E94580FDF9189
S1130C10CF9108950F931F93CF93DF93EC010FB6F9
S1130C20F8940F928E8D1816C4F48989882329F4B8
S1130C3014C08989882321F410C08E010F5E1F4FD0
S1130C40C8010E94160E882311F00E94A70E8E8DF3
S1130C5081508E8F8E8D181664F38FEF8E8F0F90C8
S1130C600FBE0FB6F8940F928D8D1816C4F48885B4
S1130C70882329F414C08885882321F410C08E01A8
S1130C80085F1F4FC8010E94160E882311F00E94AE
S1130C90A70E8D8D81508D8F8D8D181664F38FEF77
S1130CA08D8F0F900FBEDF91CF911F910F910895FB
S1130CB0CF93DF93EC012C8D222359F48881998101
S1130CC00097E1F58A819B810E94230F1B821A827F
S1130CD035C04423B9F48C819D81422F50E00E9499
S1130CE0580F2C8D8C819D81820F911D9D838C8347
S1130CF02A813B818217930708F1888199819D831A
S1130D008C831CC08E819F81422F50E00E94580F1B
S1130D104C8D50E0509541955F4F8E819F81840F9B
S1130D20951F9F838E83288139818217930730F41E
S1130D308A819B81480F591F5F834E838A8D8F5F01
S1130D408A8FDF91CF910895CF93DF93EC010FB693
S1130D50F8940F92488159812B8D30E0EC8DF0E0AE
S1130D602E9FC0012F9F900D3E9F900D1124840F44
S1130D70951F9B838A831A8E5D834C83C9010197D7
S1130D80E89F9001E99F300DF89F300D1124240F46
S1130D90351F3F832E838FEF8D8F8E8F662361F4F3
S1130DA08885882389F0CE0108960E94160E81302A
S1130DB059F40E94140508C0CE0108960E949C03B1
S1130DC0CE0141960E949C030F900FBE81E0DF91FB
S1130DD0CF9108950F931F93CF93DF93182F062F6E
S1130DE08823F9F08FE190E00E946403EC010097FE
S1130DF0D9F0019FC001112401960E9464039983D4
S1130E008883009741F01B8F0C8FCE0161E00E9414
S1130E10A406CE010BC0CE010E948D0380E090E0B9
S1130E2005C080E090E002C080E090E0DF91CF91C7
S1130E301F910F9108958F929F92BF92CF92DF924C
S1130E40EF92FF920F931F93CF93DF9300D00F92F3
S1130E500F92CDB7DEB78C014B015D834C83B22E6C
S1130E60FF24EE24E394CC24DD246894C3F8C80E54
S1130E70D91E0FB6F8940F92F801928D838D9817AE
S1130E80A8F4C801B4014B2D0E945806F8018189C9
S1130E90882341F0C80141960E94160E813011F456
S1130EA00E9414050F900FBE81E052C08C819D8179
S1130EB0009721F40F900FBE80E04AC0FF2029F470
S1130EC0CE0101960E945E0EFE2C0F900FBE0E9472
S1130ED0650B0FB6F8940F92F801858D8F3F09F4D6
S1130EE0158EF801868D8F3F09F4168E0F900FBE74
S1130EF0CE010196BE016C5F7F4F0E94690E88236C
S1130F0009F50FB6F8940F92F801928D0F900FBE69
S1130F10F801838D981781F46C817D81C6010E944C
S1130F20EA0DC8010E940A060E94430C882309F0B6
S1130F30A0CF0E9414059DCFC8010E940A060E94FA
S1130F40430C97CFC8010E940A060E94430C80E01C
S1130F500F900F900F900F900F90DF91CF911F91F2
S1130F600F91FF90EF90DF90CF90BF909F908F9064
S1130F700895CF93DF938FE190E00E946403EC0126
S1130F800097F9F01B821A82198218821D821C8232
S1130F901F821E821A8E81E08B8F1C8E8FEF8D8FA5
S1130FA08E8FCE0108960E949C03CE0141960E942A
S1130FB09C03CE0160E070E040E050E020E00E943D
S1130FC01B078C2F9D2FDF91CF9108950F931F93B3
S1130FD0CF93DF93EC018A019A8D8B8D9817E0F4FF
S1130FE0CE01422F0E9458068E8D8F3F81F489894D
S1130FF08823A1F0CE0141960E94160E882381F029
S11310000115110579F081E0F80180830CC08E8D03
S11310108F5F8E8F81E007C080E005C081E003C050
S113102081E001C081E0DF91CF911F910F9108957C
S11310308F929F92BF92CF92DF92EF92FF920F9383
S11310401F93CF93DF9300D00F920F92CDB7DEB7EB
S11310508C014B015D834C83B22EFF24EE24E39478
S11310600F2EF1E1CF2EDD24F02DC80ED91E0FB6C0
S1131070F8940F92F801828D8823A1F1E680F7801D
S1131080C801B4010E94DB05BB20D1F4F801828DB4
S11310908150828F80819181009729F40E94C40E2F
S11310A0F80193838283F80180858823B9F0C8010D
S11310B008960E94160E813089F40E9414050EC011
S11310C0F801F782E6828189882341F0C8014196BC
S11310D00E94160E882311F00E9414050F900FBE73
S11310E081E05FC08C819D81009721F40F900FBE39
S11310F080E057C0FF2029F4CE0101960E945E0EC5
S1131100FE2C0F900FBE0E94650B0FB6F8940F9241
S1131110F801858D8F3F09F4158EF801868D8F3F78
S113112009F4168E0F900FBECE010196BE016C5FBE
S11311307F4F0E94690E882371F50FB6F8940F92C1
S1131140F801828D0F900FBE8823F9F4F801808195
S11311509181009751F40FB6F8940F92F8018281AF
S113116093810E94C90E0F900FBE6C817D81C601D0
S11311700E94EA0DC8010E940A060E94430C8823BB
S113118009F075CF0E94140572CFC8010E940A06A7
S11311900E94430C6CCFC8010E940A060E94430CB3
S11311A080E00F900F900F900F900F90DF91CF91F0
S11311B01F910F91FF90EF90DF90CF90BF909F9081
S11311C08F9008950F931F93CF93DF93EC018A01BF
S11311D08A8D8823F1F0CE010E94DB058A8D81502F
S11311E08A8F8D8D8F3F81F488858823A1F0CE016D
S11311F008960E94160E882381F00115110579F0D6
S113120081E0F80180830CC08D8D8F5F8D8F81E02C
S113121007C080E005C081E003C081E001C081E037
S1131220DF91CF911F910F9108950FB6F8940F920B
S1131230FC01828D0F900FBE0895FC01828D0895EC
S1131240CF93DF93EC01888199810E948D03CE01B5
S11312500E948D03DF91CF910895FC01928D81E06E
S1131260911180E00895FC01228D81E0938D291372
S113127080E00895CF93DF93EC01E0916C1AF09134
S11312806D1A938382838091741A9091751AC8178A
S1131290D90768F48091771A9091781A60916C1A42
S11312A070916D1A6E5F7F4F0E94D70317C08091B3
S11312B0791A90917A1A60916C1A70916D1A6E5F16
S11312C07F4F0E94D70380912D0290912E02C81760
S11312D0D90720F4D0932E02C0932D02DF91CF9131
S11312E00895CDE7DAE188818230E8F30E9414059D
S11312F0FACF4F925F926F927F928F929F92BF929A
S1131300CF92DF92EF92FF920F931F93CF93DF93CD
S11313102C014B01EA013901B02E8AE290E00E94CF
S113132064038C01009709F4E3C0C114D10409F0EB
S1131330F4C0CE010E9464036C01F801908F878B86
S1131340009729F4C8010E948D038FEFD6C0C6010F
S113135065EA70E0AE010E94610F9E0121503040A9
S1131360F8018789908D6C01C20ED31EC80149967D
S1131370B40140E150E00E94680FF80110A6CB2DA3
S1131380F3E0FB1508F4C3E0F801C68BC1A7882479
S11313909924689481F8800E911EC4010E94AA03C6
S11313A0C8010C960E94AA03F8011187008784E003
S11313B090E08C1B910995878487138B028BC6015F
S11313C0B201A3010E943B04F80191838083E114DC
S11313D0F10419F0F701118300830FB6F8940F920A
S11313E08091761A8F5F8093761A80916C1A90910F
S11313F06D1A0097D9F510936D1A00936C1A8091A9
S1131400761A813009F041C0C0E0D0E0CE01880FE7
S1131410991F880F991F880F991F8C0F9D1F835840
S1131420954E0E949C032196C430D10579F7C1EAF8
S1131430DAE1CE010E949C030F2EFAEAEF2EFAE1C4
S1131440FF2EF02DC7010E949C0383EB9AE10E94BA
S11314509C038CEB9AE10E949C03D0937A1AC0936C
S1131460791AF092781AE092771A0FC08091721A62
S1131470882359F4E0916C1AF0916D1A8689B81694
S113148020F010936D1A00936C1AF80186899091DC
S11314907B1A981710F480937B1A90917C1A9F5FA3
S11314A090937C1A9091731A981710F48093731A7E
S11314B090E09C01220F331F220F331F220F331F92
S11314C0820F931F8358954EB4010E94AE030F9070
S11314D00FBE8091721A882369F0E0916C1AF09122
S11314E06D1A86898B1540F40E94140581E005C0AD
S11314F08FEF03C081E001C081E0DF91CF911F91A4
S11315000F91FF90EF90DF90CF90BF909F908F90BE
S11315107F906F905F904F900895FC01D08EC78AA2
S113152016CFFC01828593852AE18C3B920761F4F6
S1131530248935898AE1233B380741F081E021156C
S1131540310529F080E0089580E0089580E0089551
S11315500F931F93CF93DF93EC010097B9F1809120
S11315606C1A90916D1AC817D90781F10FB6F894C7
S11315700F92CE010E94910A813031F58E010E5FE7
S11315801F4FC8010E9414048E899091731A9817F2
S113159010F48093731A90E09C01220F331F220FE2
S11315A0331F220F331F820F931F8358954EB801A8
S11315B00E94AE03E0916C1AF0916D1A9E8986899F
S11315C0981710F00E9414050F900FBEDF91CF9171
S11315D01F910F910895EF92FF921F93CF93DF9382
S11315E0EC010E94910A8130B9F58091711A882327
S11315F051F5E0916C1AF0916D1A11E09E8986897B
S1131600981708F410E0EE24FF246894E1F8EC0E37
S1131610FD1EC7010E9414048E899091731A9817B5
S113162010F48093731A90E09C01220F331F220F51
S1131630331F220F331F820F931F8358954EB70118
S11316400E94AE030AC0BE01645F7F4F83EB9AE140
S11316500E94AE0310E001C010E0812FDF91CF9112
S11316601F91FF90EF900895AF92BF92CF92DF92B7
S1131670EF92FF920F9381E799E068E272E045E50B
S113168050E020E030E000E0EE24FF24CC24DD2410
S1131690AA24BB240E947909813049F4F8948093E8
S11316A0721A1092751A1092741A0E94D4040F912F
S11316B0FF90EF90DF90CF90BF90AF900895F89493
S11316C01092721A0E94130508958091711A8F5F07
S11316D08093711A08950FB6F8940F928091741A3A
S11316E09091751A0F900FBE08958091741A90917D
S11316F0751A08958091761A08950F931F93CF93C6
S1131700DF938091711A882309F0B3C08091741A11
S11317109091751A01969093751A8093741A80911A
S1131720741A9091751A009799F58091791A90918D
S11317307A1A2091771A3091781A30937A1A209372
S1131740791A9093781A8093771A80916E1A8F5F22
S113175080936E1AE091791AF0917A1A8081882325
S113176039F48FEF9FEF90932E0280932D0210C0D7
S1131770E091791AF0917A1A0580F681E02D0680BD
S1131780F781E02D8281938190932E0280932D0224
S11317902091741A3091751A80912D0290912E0225
S11317A02817390708F46AC0E091791AF0917A1A77
S11317B08081882399F0E091791AF0917A1A058052
S11317C0F681E02DC681D7818A819B812091741A8C
S11317D03091751A28173907F8F419C08FEF9FEF65
S11317E090932E0280932D0249C0E091791AF091D2
S11317F07A1A0580F681E02DC681D7818A819B8182
S11318002091741A3091751A2817390728F4909387
S11318102E0280932D0232C08E010E5F1F4FC8012D
S11318200E9414048C899D89009721F0CE010C96A6
S11318300E9414048E899091731A981710F480935F
S1131840731A90E09C01220F331F220F331F220FC3
S1131850331F820F931F8358954EB8010E94AE0325
S1131860E091791AF0917A1A8081882309F0BDCF2A
S1131870B5CF8091701A8F5F8093701ADF91CF91EA
S11318801F910F910895AF92BF92CF92DF92EF9282
S1131890FF920F931F93CF93DF930FB6F8940F9299
S11318A08091711A81508093711A8091711A8823E2
S11318B009F069C08091761A882381F567C0D60142
S11318C0ED91FC91C681D781CE010C960E9414043F
S11318D08E010E5F1F4FC8010E9414048E899091DF
S11318E0731A981710F48093731A90E09C01220FD6
S11318F0331F220F331F220F331F820F931F83586E
S1131900954EB8010E94AE03E0916C1AF0916D1AE5
S11319109E898689981788F0BA2C0FC0BB240F2E95
S1131920F3EBEF2EFAE1FF2EF02D0F2EF8EBCF2E76
S1131930FAE1DF2EF02DAA24A394F70180818823F5
S113194009F0BDCF8091701A882381F08091701ABC
S1131950882399F00E947D0B8091701A81508093A6
S1131960701A8091701A8823A9F707C0F1E0BF1696
S113197021F080916F1A813041F410926F1A0E9405
S1131980140581E003C080E001C080E00F900FBE29
S1131990DF91CF911F910F91FF90EF90DF90CF9047
S11319A0BF90AF900895CF93DF93EC010097B1F00F
S11319B00E94650B8091741A9091751AC80FD91FF3
S11319C080916C1A90916D1A02960E941404CE01B3
S11319D00E943A090E94430C882311F40E941405C2
S11319E0DF91CF9108950F931F93CF93DF938C01D1
S11319F0EB010E94650BF80180819181C80FD91F0A
S1131A002091741A3091751A2817390768F4C81789
S1131A10D90750F58091741A9091751AD183C083B7
S1131A208C179D07B0F40BC0C817D907C8F0809174
S1131A30741A9091751A8C179D0790F015C08091B7
S1131A406C1A90916D1A02960E941404CE010E94A1
S1131A503A090E94430C882359F40E94140508C0D3
S1131A60F801D183C083EBCFF801D183C083F1CFD8
S1131A70DF91CF911F910F9108958091711A88235E
S1131A8099F48091731A90E0FC01EE0FFF1FEE0FA2
S1131A90FF1FEE0FFF1F8E0F9F1FFC01E358F54E33
S1131AA08081882329F01BC081E080936F1A0895F8
S1131AB08091731A81508093731A8091731A90E005
S1131AC0FC01EE0FFF1FEE0FFF1FEE0FFF1F8E0F27
S1131AD09F1FFC01E358F54E8081882349F38091D0
S1131AE0731A90E0FC01EE0FFF1FEE0FFF1FEE0FC5
S1131AF0FF1FE80FF91FE358F54EA181B28112963A
S1131B000D90BC91A02DB283A183CF010396A81799
S1131B10B90731F412968D919C9113979283818326
S1131B200180F281E02D8681978190936D1A8093D4
S1131B306C1A0895EF92FF920F931F93CF93DF9344
S1131B407C010FB6F8940F9280916C1A90916D1AE3
S1131B50E816F90621F0E114F10441F402C0EE2480
S1131B60FF24C0916C1AD0916D1A01C0E7018E0157
S1131B700E5F1F4FC8010E9414048C899D89009731
S1131B8021F0CE010C960E9414048CEB9AE1B8016A
S1131B900E94AE030F900FBEE114F104A1F48091F2
S1131BA0721A882319F00E9414050DC09091BC1A72
S1131BB08091761A981729F410926D1A10926C1A63
S1131BC002C00E943D0DDF91CF911F910F91FF90B4
S1131BD0EF900895CF93DF93EB0160916C1A7091AD
S1131BE06D1A645F7F4F0E94D70380916C1A9091A5
S1131BF06D1A02960E9414048FEFCF3FD80759F450
S1131C0060916C1A70916D1A6E5F7F4F8CEB9AE144
S1131C100E94AE0308C08091741A9091751A8C0FBB
S1131C209D1F0E943A09DF91CF9108950F931F934E
S1131C30CF93DF93DC011596ED91FC911697068105
S1131C401781E8012C96CE010E9414048091711A28
S1131C508823E9F4E8012296CE010E941404F801D5
S1131C6086899091731A981710F48093731A90E0F0
S1131C709C01220F331F220F331F220F331F820FA9
S1131C80931F8358954EBE010E94AE0305C083EB9B
S1131C909AE1BE010E94AE03E0916C1AF0916D1AB4
S1131CA081E0D80156962C9156979689291708F405
S1131CB080E0DF91CF911F910F910895FC018091F5
S1131CC06E1A80838091741A9091751A928381831D
S1131CD00895FC01DB010FB6F8940F924D915C91CD
S1131CE011976FEF4F3F560751F180916E1A908113
S1131CF0981749F02091741A3091751A8181928154
S1131D0028173907F0F48091741A9091751A21817B
S1131D103281821B930B84179507A8F48091741A5F
S1131D209091751AB901681B790BCB01840F951F2B
S1131D308D939C93CF010E945E0E80E005C080E0ED
S1131D4003C081E001C081E00F900FBE089581E0DF
S1131D5080936F1A0895009729F4E0916C1AF0911A
S1131D606D1A01C0FC010788F08DE02D8081853A51
S1131D7041F4319680E090E001962191253AE1F317
S1131D80089580E090E0089580916C1A90916D1A06
S1131D9008950F931F93CF93DF93EC01009709F4F9
S1131DA04DC08E89E0916C1AF0916D1A968989174D
S1131DB008F044C0E0916C1AF0916D1A968924E001
S1131DC030E0291B31093D872C8790E09C01220FCC
S1131DD0331F220F331F220F331F820F931F835889
S1131DE0954E2A853B852817390711F58E010E5F1C
S1131DF01F4FC8010E941404E0916C1AF0916D1AEF
S1131E0086898E8B9091731A981710F48093731AA5
S1131E1090E09C01220F331F220F331F220F331F28
S1131E20820F931F8358954EB8010E94AE0306C0DB
S1131E30E0916C1AF0916D1A86898E8BDF91CF91A7
S1131E401F910F9108950F931F93CF93DF93EC018C
S1131E50009749F19E8989A5981729F18E010E5F93
S1131E601F4FC8010E94140449A54E8B242F30E053
S1131E7084E090E0821B930B9D878C878091731A7A
S1131E80841710F44093731AC901880F991F880F9F
S1131E90991F880F991F280F391FC9018358954E20
S1131EA0B8010E94AE03DF91CF911F910F91089565
S1131EB0FB01DC0102C001900D9241505040D8F763
S1131EC00895DC0101C06D9341505040E0F708953E
S1131ED0FB01DC014150504048F001900D9200207C
S1131EE0C9F701C01D9241505040E0F70895F8949D
S1051EF0FFCF1E
S1131EF24C454430205461736B004C4544322054A9
S1131F0261736B004C454434205461736B004C453F
S1131F124436205461736B0049444C4500FFFF0072
S9030000FC
