:100000000C9481000C94A3000C94A3000C94A30006
:100010000C94A3000C94A3000C94A3000C94A300D4
:100020000C94A3000C94A3000C94A3000C94A300C4
:100030000C94A3000C94A3000C94A3000C94A300B4
:100040000C94A3000C94A3000C94A3000C94A300A4
:100050000C94A3000C94A3000C94A3000C94A30094
:100060000C94A3000C94A3000C94A3000C94A30084
:100070000C94A3000C94A3000C94A3000C94A30074
:100080000C9485110C94A3000C94A3000C94A30071
:100090000C94A3000C94A3000C94A3000C94A30054
:1000A0000C94A3000C94A3000C94A3000C94A30044
:1000B0000C94A3000C94A3000C94A3000C94A30034
:1000C0000C94A3000C94A3000C94A3000C94A30024
:1000D0000C94A3000C94A3000C94A3000C94A30014
:1000E0000C94A30005A84CCDB2D44EB93836A90261
:1000F0000C50B9918688083CA6AAAA2ABE00000026
:10010000803F11241FBECFEFD1E2DEBFCDBF00E0A4
:100110000CBF12E0A0E0B2E0E2EFFDE300E00BBFB5
:1001200002C007900D92A036B107D9F71BBE1BE1A4
:10013000A0E6B2E001C01D92A732B107E1F70E942C
:100140000B040C94F71E0C940000FFCFCF93DF93A9
:100150000F920F92CDB7DEB789E692E004969A83AC
:100160008983E7E7F2E08081992787FD90953297B0
:1001700020813181820F931F91838083F1E0883643
:100180009F072CF0885691409183808308C0992363
:1001900034F488599E4FE5E7F2E091838083E1E7EC
:1001A000F2E0C080D180E280F3803496608171817A
:1001B000882777FD8095982F0E94561C2BED3FE0F5
:1001C00049E450E40E94431D20E030E044E353E45E
:1001D0000E94BB1BB62E872E182F092F862F982D15
:1001E000A12FB02FBC01CD010E94A61DDC01CB01C7
:1001F0009C01AD015058C701B6010E94431DE9E6BC
:10020000F2E020813181428153810E94501B462EB1
:10021000372E282E792E862F932DA22DB72DE9E685
:10022000F2E080839183A283B3838B2D982DA12F3D
:10023000B02FBC01CD010E94B81BDC01CB019C0199
:10024000AD015058C701B6010E94431DEDE6F2E032
:1002500020813181428153810E94501B662E572E8E
:10026000F82EE92E862F952DAF2DBE2DEDE6F2E06E
:1002700080839183A283B383322D842D932DA22D6D
:10028000B72DBC01CD01042D132D232F3B2FA90128
:1002900098010E94431D4B015C013F2D862D952D39
:1002A000AF2DBE2DBC01CD01062D152D232F3B2FCB
:1002B000A90198010E94431D9B01AC01C501B40135
:1002C0000E94501B162F072FC82E892E862F902F85
:1002D000AC2DB82DBC01CD0120E030E040E051E470
:1002E0000E943F1D1816DCF560E070E080E091E4AC
:1002F000E02F012F1E2F2C2D382DA90198010E94CF
:10030000BB1BC62E872ED82EB92E842D932DA22D41
:10031000B72DBC01CD010C2D182D2D2D3B2DA90184
:1003200098010E94431DDC01CB01E9E6F2E08083E5
:100330009183A283B383862D952DAF2DBE2DBC0155
:10034000CD012D2D3B2DA90198010E94431DDC01FB
:10035000CB01E981FA8180839183A283B383E1E6B3
:10036000F2E06081718182819381389620813181B0
:10037000428153810E94501B062F172FE82EF92E21
:10038000862F912FAE2DBF2DE1E6F2E08083918381
:10039000A283B38334966081718182819381389680
:1003A00020813181428153810E94501BDC01CB01AD
:1003B000E5E6F2E080839183A283B383802F912FBF
:1003C000AE2DBF2DBC01CD0120E030E0A9010E947F
:1003D000B41B8823ACF4802F912FAE2DBF2DBC0110
:1003E000CD0120E030E048E454E40E94501BDC01E1
:1003F000CB01E1E6F2E080839183A283B38322C044
:10040000802F912FAE2DBF2DBC01CD0120E030E01B
:1004100048E454E40E943F1D1816A4F4802F912F45
:10042000AE2DBF2DBC01CD0120E030E048E454E406
:100430000E944F1BDC01CB01E1E6F2E08083918357
:10044000A283B383E5E6F2E0C080D180E280F3804E
:10045000C701B60120E030E0A9010E94B41B882347
:100460008CF4C701B60120E030E046E154E40E947C
:10047000501BDC01CB01E5E6F2E080839183A2838F
:10048000B3831AC0C701B60120E030E046E154E46E
:100490000E943F1D181684F4C701B60120E030E029
:1004A00046E154E40E944F1BDC01CB01E5E6F2E09B
:1004B00080839183A283B38380907F029090800297
:1004C0008114910409F4F1C000E010E0F401818D81
:1004D000928D0A96928F818FF3E0883E9F07C8F134
:1004E00080917D0290917E0260E070E04FEF5FEFBF
:1004F00020E00E94C513F40180810E94E30B0115E6
:10050000110569F0F401838D948DF801948F838F28
:10051000C4010E94EC0CF801838C948C0EC0F40191
:10052000838D948D9093800280937F02C4010E94FA
:10053000EC0C80907F029090800280917D029091DF
:100540007E0260E070E040E050E020E00E94C812CF
:10055000A8C0F401618172818381948121853285F3
:10056000438554850E94501B162F072FF82EE92E25
:10057000862F902FAF2DBE2DF40181839283A3830C
:10058000B483658176818781908525853685478509
:1005900050890E94501BDC01CB01F40185839683B6
:1005A000A783B087812F902FAF2DBE2DBC01CD0129
:1005B00020E030E0A9010E94B41B8823A4F4812F1D
:1005C000902FAF2DBE2DBC01CD0120E030E048E4DE
:1005D00054E40E94501BDC01CB01F401818392831F
:1005E000A383B48321C0812F902FAF2DBE2DBC01DA
:1005F000CD0120E030E048E454E40E943F1D18168D
:100600009CF4812F902FAF2DBE2DBC01CD0120E099
:1006100030E048E454E40E944F1BDC01CB01F401BC
:1006200081839283A383B483F401C580D680E7805D
:10063000F084C701B60120E030E0A9010E94B41B9C
:10064000882384F4C701B60120E030E046E154E499
:100650000E94501BDC01CB01F40185839683A783A4
:10066000B08719C0C701B60120E030E046E154E48C
:100670000E943F1D18167CF4C701B60120E030E04F
:1006800046E154E40E944F1BDC01CB01F401858359
:100690009683A783B087F401938D848D8401892E7E
:1006A000982E8114910409F011CF809081029090CE
:1006B00082028114910409F4A9C0F401618172815C
:1006C0008381948121853285438554850E94501B06
:1006D000162F072FF82EE92E862F902FAF2DBE2D27
:1006E000F40181839283A383B483658176818781BA
:1006F000908525853685478550890E94501BDC01F1
:10070000CB01F40185839683A783B087812F902F37
:10071000AF2DBE2DBC01CD0120E030E0A9010E942B
:10072000B41B8823A4F4812F902FAF2DBE2DBC01C4
:10073000CD0120E030E048E454E40E94501BDC018D
:10074000CB01F40181839283A383B48321C0812FE1
:10075000902FAF2DBE2DBC01CD0120E030E048E44C
:1007600054E40E943F1D18169CF4812F902FAF2D4A
:10077000BE2DBC01CD0120E030E048E454E40E94ED
:100780004F1BDC01CB01F40181839283A383B483EB
:10079000F401C580D680E780F084C701B60120E06F
:1007A00030E0A9010E94B41B882384F4C701B6017C
:1007B00020E030E046E154E40E94501BDC01CB0114
:1007C000F40185839683A783B08719C0C701B6015A
:1007D00020E030E046E154E40E943F1D18167CF40E
:1007E000C701B60120E030E046E154E40E944F1B0F
:1007F000DC01CB01F40185839683A783B087F401E4
:10080000838C948C8114910409F057CF8AE090E096
:100810000E948018A6CC14B881E08093B0000E949A
:10082000661390937E0280937D0280E293E068E5F8
:1008300072E00E94F80A789485EA90E060E072E045
:1008400040E550E020E030E001E00F2EF7E8EF2E29
:10085000F2E0FF2EF02DCC24DD24AA24BB240E943C
:10086000261580E597E062E072E042E850E020E083
:1008700030E002E00F2EF5E8EF2EF2E0FF2EF02D33
:100880000E94261586EA90E064E072E048EC50E0B1
:1008900020E030E004E00F2EF3E8EF2EF2E0FF2E30
:1008A000F02D0E94261588E199E066E072E046EEA0
:1008B00050E020E030E003E0EE24FF240E94261503
:1008C0000E94E116FFCFCF93DF93C0918102D091B8
:1008D0008202209791F088810E94E30B809181022F
:1008E00090918202FC01C38DD48D0E94EC0CD093B8
:1008F0008202C0938102209771F7809189020E9441
:10090000130CC0917F02D0918002209791F08881D2
:100910000E94E30B80917F0290918002FC01C38DC5
:10092000D48D0E94EC0CD0938002C0937F0220975C
:1009300071F7DF91CF9108950F931F93CF93DF93BA
:10094000EC010E948E1EBE01685770400E94F01D8F
:100950008C010E948E1E62E070E00E94F01DAC01CE
:100960009E0128583F4F429FC001439F900D529FC8
:10097000900D1124800F911FDF91CF911F910F9146
:100980000895823071F0833019F0813039F403C05A
:1009900084E690E008958FE090E0089580E991E08A
:1009A000089588E290E008953F924F925F926F928F
:1009B0007F928F929F92AF92BF92CF92DF92EF92EF
:1009C000FF920F931F93CF93DF93CDB7DEB7289796
:1009D0000FB6F894DEBF0FBECDBF2B013C012983BB
:1009E0003A834B835C833E8C8DE190E00E944C0CFB
:1009F0005C010E948E1E8C01832D0E94C1047C012B
:100A0000C80163E070E00E94F01DFC01EE0FFF1FC3
:100A1000E45BFD4FC080D180C301B2010E94281C5D
:100A20006D837E838F83988769817A818B819C8196
:100A30000E94281C8B019C01C6016D817E81A8014A
:100A400094018701CC24C3940E94210B682FD50107
:100A50008C93F501418252826382748289819A81EA
:100A6000AB81BC8185839683A783B08741865286FC
:100A70006386748689819A81AB81BC8185879687DC
:100A8000A787B08B968A858A8D8D878B308E209133
:100A9000810230918202348F238F809189020E94DB
:100AA000F30B8A2D9B2D28960FB6F894DEBF0FBE50
:100AB000CDBFDF91CF911F910F91FF90EF90DF900D
:100AC000CF90BF90AF909F908F907F906F905F90EE
:100AD0004F903F9008952F923F924F925F926F9266
:100AE0007F928F929F92AF92BF92CF92DF92EF92BE
:100AF000FF920F931F93CF93DF93CDB7DEB7289765
:100B00000FB6F894DEBF0FBECDBF109280021092D8
:100B10007F0210928202109281028FEF80938902ED
:100B200088E092E060E971E04CE251E020E030E0E2
:100B300000E213E00F2EF8E5EF2EF2E0FF2EF02D8D
:100B4000CC240E94210B80938A0286B590E00E94FB
:100B5000931E0E94ED0B809389020F2EF5E02F2E3D
:100B60003324F02D80E991E00E949C042C018CE25A
:100B700091E00E949C047C010E948E1E6C010E94E8
:100B80008E1E5C010E948E1E4C010E948E1E9C8354
:100B90008B8300D00F922DB73EB72F5F3F4F3A8324
:100BA0002983B201882777FD8095982F0E94561CD3
:100BB0006D837E838F839887B701882777FD809523
:100BC000982F0E94561C2B013C01C60164E170E085
:100BD0000E94F01DFC01BF01882777FD8095982FAA
:100BE0000E94561C20E030E040EA50E40E94BB1B0B
:100BF00020E030E040E050E40E944F1B7B018C017C
:100C0000C50164E170E00E94F01D9C01B9018827D4
:100C100077FD8095982F0E94561C20E030E040EA36
:100C200050E40E94BB1B20E030E040E050E40E9412
:100C30004F1B5B016C01C40168E671E00E94F01D6E
:100C40004C018B819C816EE170E00E94F01DFC01E3
:100C5000BF01882777FD8095982F0E94561C20E0C1
:100C600030E040EA50E40E94BB1B20E030E040E46A
:100C700050E40E944F1B0E94231CE981FA8160838B
:100C800023E0218380918102909182029383828369
:100C90006D817E818F819885A30192010E94D40489
:100CA00090938202809381020894210831080F906A
:100CB0000F900F900F902114310409F053CF82E16F
:100CC00092E060E971E04CE251E020E030E008E1C0
:100CD00010E00F2EF8E1EF2EFF24F02DCC24C3946A
:100CE0000E94210B8093600280E090E0A8ECB3E4C6
:100CF0008093610290936202A0936302B0936402B6
:100D000080E090E0A6E9B3E48093650290936602E8
:100D1000A0936702B093680280E090E0DC018093CA
:100D2000690290936A02A0936B02B0936C02809365
:100D30006D0290936E02A0936F02B0937002809345
:100D4000710290937202A0937302B0937402109296
:100D50007602109275021092770228960FB6F894D8
:100D6000DEBF0FBECDBFDF91CF911F910F91FF90DE
:100D7000EF90DF90CF90BF90AF909F908F907F903B
:100D80006F905F904F903F902F9008954F925F9299
:100D90006F927F928F929F92AF92BF92CF92DF928B
:100DA000EF92FF920F931F93CF93DF93CDB7DEB7F0
:100DB0002C970FB6F894DEBF0FBECDBF2B013C01C0
:100DC00029833A834B835C83ED82FE820F831887ED
:100DD000A986BA86CB86DC868DE190E00E944C0C19
:100DE0005C01C301B2010E94281C6B017C01698176
:100DF0007A818B819C810E94281C8B019C018BE154
:100E000092E0B601A80120E030E006E010E00F2EED
:100E1000F6E0EF2EFF24F02DCC24C3940E94210B8A
:100E2000D5018C93F501418252826382748289815B
:100E30009A81AB81BC8185839683A783B0878D819E
:100E40009E81AF81B88581879287A387B487898582
:100E50009A85AB85BC8585879687A787B08B86E00A
:100E6000808F88EE93E0928F818F948E838E8A2D6F
:100E70009B2D2C960FB6F894DEBF0FBECDBFDF9131
:100E8000CF911F910F91FF90EF90DF90CF90BF9087
:100E9000AF909F908F907F906F905F904F9008954C
:100EA000CF93DF93CDB7DEB72A970FB6F894DEBFA6
:100EB0000FBECDBF0E9418179A8389830F2EF1E6CB
:100EC0006F2EF2E07F2EF02D44245524689442F8D2
:100ED000460C571C22243324689423F8260C371C14
:100EE00080917D0290917E0260E070E04FEF5FEFB5
:100EF00020E00E94C513D3018D919D910D90BC916E
:100F0000A02D8B839C83AD83BE83D2018D919D9157
:100F10000D90BC91A02D8F839887A987BA87F10186
:100F2000608171818281938120E030E040EC50E467
:100F30000E94501B7B018C01ADE6B2E06D917D916A
:100F40008D919C9120E030E040EC50E40E94501BD9
:100F50005B016C0180907F02909080026B817C81AC
:100F60008D819E812F81388549855A850E94C606CC
:100F70009093800280937F0280917D0290917E0207
:100F800060E070E040E050E020E00E94C81284EF92
:100F900091E00E948018CE0101966AE070E00E9404
:100FA000A0189ECF2F923F924F925F926F927F92A6
:100FB0008F929F92AF92BF92CF92DF92EF92FF9269
:100FC0000F931F93CF93DF93CDB7DEB76A970FB61A
:100FD000F894DEBF0FBECDBF9C838B83623008F4D4
:100FE0000EC1862F90E001978130910569F0823023
:100FF000910529F426E030E083E090E009C023E089
:1010000030E082E090E004C029E030E084E090E04D
:10101000482F440F542F550F550F450FE42EFF2432
:10102000E7FCF094FE82ED82422F440F542F550FBF
:10103000550F450F042F112707FD1095188B0F87AB
:101040000F2EF3E02F2E3324F02D7C010027F7FC28
:101050000095102FE98AFA8A0B8B1C8BC901AA27ED
:1010600097FDA095BA2F8D8B9E8BAF8BB88F762E68
:101070007A943A822982AB81BC81ED90FD900D91EA
:101080001C911397EF82F88609871A871496ED90C2
:10109000FD900D911C911797EB86FC860D871E879E
:1010A0000E948E1E8C0169897A898B899C890E9495
:1010B000561C6B017C01C8016D817E810E94F01D70
:1010C000FC01BF01882777FD8095982F0E94561C50
:1010D00020E030E040EA50E40E94BB1BA7019601EB
:1010E0000E944F1B662E572E482E292E0E948E1EC0
:1010F0006D817E810E94F01D8C01B801882777FDEB
:101100008095982F0E94561C20E030E040EA50E481
:101110000E94BB1BA70196010E944F1BB62EA72E53
:10112000982E892E0E948E1E6C010E948E1E9C019C
:1011300000D00F920DB71EB70F5F1F4FC60168E6B4
:1011400071E00E94F01D9A8F898FC9016F8578899F
:101150000E94F01D9C01B901882777FD8095982F8A
:101160000E94561C20E030E040EA50E40E94BB1B85
:101170006B017C016D897E898F89988D0E94561C38
:101180009B01AC01C701B6010E944F1B0E94231CAA
:10119000D8016C9311967C92119780918102909165
:1011A000820213969C938E9312976F81788589851E
:1011B0009A852B853C854D855E85C62CD52CE42CE7
:1011C000F22C87017601A92DB82D8B2C9A2CAA2EF2
:1011D000BB2E65015401898C9A8C0E94D404909393
:1011E000820280938102E981FA813197FA83E9834F
:1011F0000F900F900F900F90309709F03CCF6A96A8
:101200000FB6F894DEBF0FBECDBFDF91CF911F9117
:101210000F91FF90EF90DF90CF90BF90AF909F9095
:101220008F907F906F905F904F903F902F90089598
:10123000CF93DF93CDB7DEB729970FB6F894DEBF13
:101240000FBECDBF80918302909184020E94471906
:1012500080918502909186020E94471980918702B1
:10126000909188020E9447190E946B058091830229
:10127000909184020E945516809185029091860279
:101280000E94551680918702909188020E945516FF
:101290000F2EF0E64F2EF2E05F2EF02D0F2EF5E12F
:1012A0002F2E3324F02D240C351C80917D0290913B
:1012B0007E0260E070E04FEF5FEF20E00E94C51318
:1012C000F10160817181F20180810E949B0BE1E656
:1012D000F2E060817181828193810E94281C6B0100
:1012E0007C01E5E6F2E060817181828193810E9458
:1012F000281C8B019C01F2018081B601A8010E948B
:10130000790BE0907F02F0908002E114F10409F47F
:1013100098C066247724F70161817281838194816A
:101320000E94281C4B015C01F70165817681878151
:1013300090850E94281C8B019C01F7018081B401DB
:10134000A8010E94790BF701808160918902AE01AA
:101350004F5F5F4F21E00E941D0C882309F467C096
:10136000F70180810E94E30B6114710469F0F701B9
:10137000838D948DF301948F838FC7010E94EC0CB1
:10138000F301E38CF48C0EC0F701838D948D909360
:10139000800280937F02C7010E94EC0CE0907F02E4
:1013A000F0908002C0908102D0908202C114D104DA
:1013B00009F443C09981F6018081891789F5F3C04A
:1013C000F8018081891759F54801DE01129631969E
:1013D00088E001900D928150E1F7F401B08C80819A
:1013E0000E94E30BC114D10451F0F401838D948D5C
:1013F000F601948F838FC4010E94EC0C0AC0F8019F
:10140000838D948D9093820280938102C8010E9403
:10141000EC0CCE0102966B2D0E94D2070EC0680123
:10142000F601038D148D0115110551F606C0F70163
:10143000938D848D3701E92EF82EE114F10409F023
:101440006ACF00918102109182020115110521F1EC
:10145000F80161817281838194810E94281C4B0173
:101460005C01F80165817681878190850E94281C46
:101470006B017C01F8018081B401A6010E94790B07
:10148000F8016589768980810E949B0BF801038DA4
:10149000148D01151105E1F6F20180816091890238
:1014A000AE014F5F5F4F21E00E941D0C882339F48D
:1014B0008091810290918202009709F064C080912E
:1014C0008302909184020E94471980918502909135
:1014D00086020E94471980918702909188020E949B
:1014E000471980918102909182020097C1F486E2AF
:1014F00092E060E971E04CE251E024E130E000E983
:1015000011E00F2EFCE2EF2EF1E0FF2EF02D0F2E5A
:10151000F4E6CF2EF02D0E94210B082F17C08EE28B
:1015200092E060E971E04CE251E020E030E000E957
:1015300011E00F2EFCE2EF2EF1E0FF2EF02D0F2E2A
:10154000F4E6CF2EF02D0E94210B082F88EB9BE0B4
:101550000E948018802F0E94E30B0E9463040E9467
:101560006B0580918302909184020E9455168091B0
:101570008502909186020E94551680918702909173
:1015800088020E94551680917D0290917E0260E053
:1015900070E040E050E020E00E94C8128AE090E055
:1015A0000E94801882CEDE011296F601319688E004
:1015B00001900D928150E1F7F601B08C80810E947C
:1015C000E30B86011CCFCF93DF93EC018BE00E94ED
:1015D000371B8881882331F021960E94371B89911F
:1015E0008823D9F780E00E94371BDF91CF910895BF
:1015F0000F931F93CF93DF93182F092FC62FD72F49
:1016000080E096E940E054E264EF70E00E94051B40
:101610000E94471B8FEF0E943F1B8AE00E943F1BE6
:10162000802F0E943F1B812F0E943F1B8D2F0E9405
:101630003F1B8C2F0E943F1BDF91CF911F910F9179
:1016400008957F928F929F92AF92BF92CF92DF9236
:10165000EF92FF920F931F93CF93DF93EC01B62E7F
:10166000D72E942EA52E722E832E81E00E94371B3A
:101670008881882331F021960E94371B8991882325
:10168000D9F780E00E94371B8D2D0E94371B8B2DD0
:101690000E94371B8A2D0E94371B892D0E94371B01
:1016A000882D0E94371B872D0E94371B812F0E9497
:1016B000371B802F0E94371B8F2D0E94371B8E2DCA
:1016C0000E94371B8C2D0E94371B8AEA82B90E9428
:1016D000471B9FEF92B9DF91CF911F910F91FF9020
:1016E000EF90DF90CF90BF90AF909F908F907F90C2
:1016F0000895FF920F931F93CF93DF93F82E162F29
:10170000072FC42FD52F82E00E94371B8F2D0E94F8
:10171000371B802F0E94371B812F0E94371B8D2F74
:101720000E94371B8C2F0E94371BDF91CF911F9196
:101730000F91FF9008951F93CF93DF93182FC62F1B
:10174000D72F83E00E94371B812F0E94371B8D2FDC
:101750000E94371B8C2F0E94371BDF91CF911F9166
:101760000895FF920F931F93CF93DF93F82E162FB8
:10177000072FC42FD52F8DE00E94371B8F2D0E947D
:10178000371B802F0E94371B812F0E94371B8D2F04
:101790000E94371B8C2F0E94371BDF91CF911F9126
:1017A0000F91FF900895CF93DF93D82FC62F8CE031
:1017B0000E94371B8D2F0E94371B8C2F0E94371BD6
:1017C000DF91CF910895CF93C82F84E00E94371BFB
:1017D0008C2F0E94371BCF91089585E00E94371B04
:1017E0000E94471B0895CF93DF93D82FC62F86E022
:1017F0000E94371B8D2F0E94371B8C2F0E94371B96
:10180000DF91CF910895CF93DF93D82FC62F87E034
:101810000E94371B8D2F0E94371B8C2F0E94371B75
:10182000DF91CF910895CF93C82F88E00E94371B96
:101830008C2F0E94371BCF910895FF920F931F9317
:10184000CF93DF93D82FC62F042FF52E122F89E0C8
:101850000E94371B8D2F0E94371B8C2F0E94371B35
:10186000112361F0C02FDF2D00E00E94471B8993F8
:101870008F3F59F00F5F0117C1F703C000E001C0AF
:101880000F5F0E94471B8F3FD9F7802FDF91CF91C9
:101890001F910F91FF9008950F931F93CF93DF93A4
:1018A000EC010E94121780918B028823F9F480E9E1
:1018B00092E090938D0280938C0210928F0210928E
:1018C0008E0280E098E19093931A8093921AE2E955
:1018D000FAE1129212929093930280939202F09303
:1018E0009102E093900281E080938B02209709F4AB
:1018F00062C09E012B5F3F4F249687E1CF3FD80700
:1019000008F05CC0E0918C02F0918D02ACE8B2E08E
:1019100002C0DF01FC01828193818217930720F4CA
:10192000808191810097A9F7CAE1E039FC0709F4A9
:1019300048C08D919C9111978C010B5F1F4F808146
:10194000918111969C938E9382819381821B930B3C
:101950008B30910518F1AF01420F531FDA01139636
:101960009C938E9312973383228312962D913C91F0
:1019700013976CE872E001C0BD01EB01A881B98149
:1019800012968D919C91139782179307A8F3EA0101
:10199000B983A883DB0111965C934E938091520228
:1019A0009091530222813381821B930B90935302B7
:1019B0008093520208C000E010E005C000E010E093
:1019C00002C000E010E00E94F017802F912FDF91FD
:1019D000CF911F910F9108950F931F93CF93DF9392
:1019E000EC01009739F18C01055010400E9412174C
:1019F000F80122813381ACE8B2E001C0DF01ED9152
:101A0000FC9111978281938182179307B8F32597F0
:101A1000F983E8830D931C938091520290915302B5
:101A20002A813B81820F931F90935302809352022D
:101A30000E94F017DF91CF911F910F91089580912F
:101A400052029091530208950895AF92BF92CF929F
:101A5000DF92EF92FF920F931F93CF93DF936C016E
:101A6000E62EF42E8AE190E00E944C0C8C01009747
:101A700009F462C08091941A9091951A009739F5F3
:101A80001093951A0093941AC7E9DAE1CE010E94E7
:101A90004A0FCE0109960E944A0FC9EADAE1CE0147
:101AA0000E944A0F0F2EF2EBAF2EFAE1BF2EF02D5F
:101AB000C5010E944A0F8BEB9AE10E944A0FD09316
:101AC000C51AC093C41AB092C71AA092C61ACE2DD6
:101AD000E110C1E0F801118E108EC68BF78AC19219
:101AE000D1927F01CF010E94580FC8010C960E942D
:101AF000580FF80111870087138B028B84E090E068
:101B00008C1B91099587848786899091961A9817DE
:101B100010F48093961A90E09C01220F331F220F3D
:101B2000331F220F331F820F931F8956954EB70123
:101B30000E945C0F81E001C08FEFDF91CF911F9178
:101B40000F91FF90EF90DF90CF90BF90AF900895EE
:101B50000F931F93CF93DF938B01C091C81AD0913D
:101B6000C91AC80FD91F8091941A9091951A02969C
:101B70000E94C20FE091941AF091951AD383C28308
:101B80008091C81A9091C91AC817D90750F4BF019B
:101B90006E5F7F4F8091C61A9091C71A0E94850F81
:101BA00009C0BF016E5F7F4F8091C41A9091C51A22
:101BB0000E94850F0115110549F06091941A7091EA
:101BC000951A645F7F4FC8010E94850FDF91CF9106
:101BD0001F910F910895CF92DF92EF92FF920F9392
:101BE0001F93CF93DF938091BB1A8823B9F10F2EF7
:101BF000F0ECEF2EFAE1FF2EF02D0F2EFBEBCF2EA7
:101C0000FAE1DF2EF02DF894D701ED91FC91C68119
:101C1000D781CE010C960E94C20F78948E010E5F80
:101C20001F4FC8010E94C20F8E899091961A981773
:101C300010F48093961A90E09C01220F331F220F1C
:101C4000331F220F331F820F931F8956954EB80101
:101C50000E945C0FF60180818823A9F60E94181764
:101C60002091CA1A3091CB1A821B930B9093CD1AF4
:101C70008093CC1A74C02091C81A3091C91A2F5F72
:101C80003F4F3093C91A2093C81A01979093CD1AE9
:101C90008093CC1A2115310581F48091C41A90915A
:101CA000C51A2091C61A3091C71A3093C51A2093CD
:101CB000C41A9093C71A8093C61AE091C41AF0917F
:101CC000C51A8081882309F44AC00580F681E02D79
:101CD000C681D7812A813B818091C81A9091C91A07
:101CE0008217930778F43BC00580F681E02DC6810A
:101CF000D7812A813B818091C81A9091C91A821795
:101D0000930768F1F8948E010E5F1F4FC8010E947F
:101D1000C20F8C899D89009721F0CE010C960E94FC
:101D2000C20F78948E899091961A981710F4809328
:101D3000961A90E09C01220F331F220F331F220FAF
:101D4000331F820F931F8956954EB8010E945C0F76
:101D5000E091C41AF091C51A8081882329F68091F8
:101D6000CC1A9091CD1A009709F085CF8091C81AAE
:101D70009091C91A9093CB1A8093CA1A2091961AFF
:101D8000822F90E0FC01EE0FFF1FEE0FFF1FEE0F02
:101D9000FF1FE80FF91FE956F54E30813323D9F4C0
:101DA000222331F447C0222319F42093961A42C00B
:101DB0002150822F90E0FC01EE0FFF1FEE0FFF1F5E
:101DC000EE0FFF1FE80FF91FE956F54E3081332360
:101DD00051F32093961AFC01EE0FFF1FEE0FFF1F29
:101DE000EE0FFF1F8E0F9F1FFC01E956F54EA181DC
:101DF000B28112960D90BC91A02DB283A183CF0128
:101E00000396A817B90731F412968D919C911397F8
:101E1000928381830180F281E02DA681B781B09306
:101E2000951AA093941AED91FC911197CD015796B4
:101E30006C911995DF91CF911F910F91FF90EF90C9
:101E4000DF90CF9008950F931F93CF93DF93DC0122
:101E50001596ED91FC91169706811781E8012C9655
:101E6000CE010E94C20F8BEB9AE1BE010E945C0F73
:101E7000E091941AF091951A81E0D80156962C9130
:101E800056979689291708F480E0DF91CF911F912A
:101E90000F910895FC010396928381832FEF3FEF0A
:101EA0003483238396838583908787831082089564
:101EB000FC01118610860895CF93DF93EC01FB019E
:101EC00089819A81DC0112962D913C91139733837D
:101ED000228329813A813583248312962D913C9166
:101EE0001397D90115967C936E931497DC01139682
:101EF0007C936E9312977A836983D187C087888198
:101F00008F5F8883DF91CF910895CF93DF93AC01EA
:101F1000EB01288139818FEF2F3F380721F4FA0137
:101F2000A781B08518C0DA011396FA0185819681E0
:101F3000FC01808191812817390768F012960D9075
:101F4000BC91A02D1296ED91FC9113978081918107
:101F50002817390798F71296ED91FC911397FB8398
:101F6000EA83D583C483BD83AC831396DC93CE937D
:101F7000129759874887FA0180818F5F8083DF91AC
:101F8000CF910895FC01A281B3818481958115963A
:101F90009C938E931497A481B5818281938113962B
:101FA0009C938E931297A085B18511968D919C91EB
:101FB00012978E179F0731F48481958112969C9316
:101FC0008E931197118610868C9181508C938C91F1
:101FD000089521E1FC012083319732E23083FC0136
:101FE0003297A3E3A083FC0133976083FC0134970D
:101FF0007083FC0135971082FC0136971082FC013A
:10200000379760E86083FC0138971082FC013997AC
:102010001082FC013A971082FC013B9762E06083DA
:10202000FC013C9763E06083FC013D9764E06083C2
:10203000FC013E9765E06083FC013F9766E06083AA
:10204000FC01709767E06083FC01719768E0608332
:10205000FC01729769E06083FC01739760E1608323
:10206000FC0174972083FC01759722E12083FC0119
:10207000769723E12083FC01779724E12083FC01FC
:10208000789725E12083FC01799726E12083FC01E4
:102090007A9727E12083FC017B9728E12083FC01CC
:1020A0007C9729E12083FC017D9720E22083FC01BD
:1020B0007E9721E22083FC017F973083FC01B0975B
:1020C00023E22083FC01B1974083FC01B297508347
:1020D000FC01B39726E22083FC01B49727E220831A
:1020E000FC01B59728E22083FC01B69729E2208302
:1020F000FC01B79720E32083FC01B89721E32083FC
:10210000899708951092990089EF809398008BE049
:1021100080939100E1E7F0E0808182608083A0916C
:10212000CE1AB091CF1ACD91CDBFDD91DEBFFF9118
:10213000EF91DF91CF91BF91AF919F918F917F915F
:102140006F915F914F913F912F911F910F91FF9050
:10215000EF90DF90CF90BF90AF909F908F907F9047
:102160006F905F904F903F902F901F900F900CBEFC
:102170000F900BBE0F900FBE0F90089581E0089551
:1021800008950F920FB6F8940F920BB60F920CB6FB
:102190000F921F9211242F923F924F925F926F9253
:1021A0007F928F929F92AF92BF92CF92DF92EF92E7
:1021B000FF920F931F932F933F934F935F936F93D0
:1021C0007F938F939F93AF93BF93CF93DF93EF93BF
:1021D000FF93A091CE1AB091CF1A0DB60D920EB604
:1021E0000D920E94EA18A091CE1AB091CF1ACD910B
:1021F000CDBFDD91DEBFFF91EF91DF91CF91BF9118
:10220000AF919F918F917F916F915F914F913F918E
:102210002F911F910F91FF90EF90DF90CF90BF9083
:10222000AF909F908F907F906F905F904F903F9076
:102230002F901F900F900CBE0F900BBE0F900FBEF3
:102240000F9008950F920FB6F8940F920BB60F925D
:102250000CB60F921F9211242F923F924F925F92D1
:102260006F927F928F929F92AF92BF92CF92DF92A6
:10227000EF92FF920F931F932F933F934F935F9390
:102280006F937F938F939F93AF93BF93CF93DF937E
:10229000EF93FF93A091CE1AB091CF1A0DB60D9285
:1022A0000EB60D920E942A170E94EA18A091CE1A2B
:1022B000B091CF1ACD91CDBFDD91DEBFFF91EF91EF
:1022C000DF91CF91BF91AF919F918F917F916F914E
:1022D0005F914F913F912F911F910F91FF90EF9040
:1022E000DF90CF90BF90AF909F908F907F906F9036
:1022F0005F904F903F902F901F900F900CBE0F90CB
:102300000BBE0F900FBE0F9008950E9422111895DA
:10231000CF93DF93DC01CD91DC911197209721F1D0
:102320005C964C915C9716962D913C911797240FD3
:10233000311D17963C932E9316971296ED91FC91B2
:1023400013972E173F0720F01796DC93CE9316971E
:1023500016963C91169717962C91862F972F632FE0
:10236000722F50E00E949E1EDF91CF9108950F932F
:102370001F93CF93DF93EC010FB6F8940F928E8DDD
:102380001816C4F48989882329F414C089898823FC
:1023900021F410C08E010F5E1F4FC8010E94C319A7
:1023A000882311F00E94541A8E8D81508E8F8E8D4D
:1023B000181664F38FEF8E8F0F900FBE0FB6F89440
:1023C0000F928D8D1816C4F48885882329F414C0C3
:1023D0008885882321F410C08E01085F1F4FC80133
:1023E0000E94C319882311F00E94541A8D8D8150C8
:1023F0008D8F8D8D181664F38FEF8D8F0F900FBE1C
:10240000DF91CF911F910F910895CF93DF93EC014E
:102410002C8D222359F4888199810097E1F58A81D6
:102420009B810E94D01A1B821A8235C04423B9F4C2
:102430008C819D81422F50E00E949E1E2C8D8C81AC
:102440009D81820F911D9D838C832A813B81821700
:10245000930708F1888199819D838C831CC08E81AC
:102460009F81422F50E00E949E1E4C8D50E050955F
:1024700041955F4F8E819F81840F951F9F838E832F
:10248000288139818217930730F48A819B81480F14
:10249000591F5F834E838A8D8F5F8A8FDF91CF9123
:1024A0000895CF93DF93EC010FB6F8940F92488113
:1024B00059812B8D30E0EC8DF0E02E9FC0012F9FD5
:1024C000900D3E9F900D1124840F951F9B838A834E
:1024D0001A8E5D834C83C9010197E89F9001E99FA3
:1024E000300DF89F300D1124240F351F3F832E83AC
:1024F0008FEF8D8F8E8F662361F48885882389F016
:10250000CE0108960E94C319813059F40E94C1106F
:1025100008C0CE0108960E944A0FCE0141960E9443
:102520004A0F0F900FBE81E0DF91CF9108950F9376
:102530001F93CF93DF93182F062F8823F9F08FE195
:1025400090E00E944C0CEC010097D9F0019FC00173
:10255000112401960E944C0C99838883009741F0C6
:102560001B8F0C8FCE0161E00E945112CE010BC077
:10257000CE010E94EC0C80E090E005C080E090E08D
:1025800002C080E090E0DF91CF911F910F910895FC
:102590008F929F92BF92CF92DF92EF92FF920F9312
:1025A0001F93CF93DF9300D00F920F92CDB7DEB77A
:1025B0008C014B015D834C83B22EFF24EE24E39407
:1025C000CC24DD246894C3F8C80ED91E0FB6F89445
:1025D0000F92F801928D838D9817A8F4C801B40169
:1025E0004B2D0E940512F8018189882341F0C80112
:1025F00041960E94C319813011F40E94C1100F90BE
:102600000FBE81E052C08C819D81009721F40F9014
:102610000FBE80E04AC0FF2029F4CE0101960E943F
:102620000B1AFE2C0F900FBE0E9412170FB6F894D3
:102630000F92F801858D8F3F09F4158EF801868D74
:102640008F3F09F4168E0F900FBECE010196BE018A
:102650006C5F7F4F0E94161A882309F50FB6F89415
:102660000F92F801928D0F900FBEF801838D98178D
:1026700081F46C817D81C6010E949719C8010E9476
:10268000B7110E94F017882309F0A0CF0E94C11053
:102690009DCFC8010E94B7110E94F01797CFC801C3
:1026A0000E94B7110E94F01780E00F900F900F90DA
:1026B0000F900F90DF91CF911F910F91FF90EF90AE
:1026C000DF90CF90BF909F908F900895CF93DF932E
:1026D0008FE190E00E944C0CEC010097F9F01B8216
:1026E0001A82198218821D821C821F821E821A8EF3
:1026F00081E08B8F1C8E8FEF8D8F8E8FCE01089691
:102700000E944A0FCE0141960E944A0FCE0160E01E
:1027100070E040E050E020E00E94C8128C2F9D2F16
:10272000DF91CF9108950F931F93CF93DF93EC0127
:102730008A019A8D8B8D9817E0F4CE01422F0E946A
:1027400005128E8D8F3F81F489898823A1F0CE01F7
:1027500041960E94C319882381F00115110579F073
:1027600081E0F80180830CC08E8D8F5F8E8F81E0B9
:1027700007C080E005C081E003C081E001C081E0C6
:10278000DF91CF911F910F9108958F929F92BF92E9
:10279000CF92DF92EF92FF920F931F93CF93DF932D
:1027A00000D00F920F92CDB7DEB78C014B015D8345
:1027B0004C83B22EFF24EE24E3940F2EF1E1CF2EB2
:1027C000DD24F02DC80ED91E0FB6F8940F92F80133
:1027D000828D8823A1F1E680F780C801B4010E94B0
:1027E0008811BB20D1F4F801828D8150828F8081C5
:1027F0009181009729F40E94711AF80193838283D2
:10280000F80180858823B9F0C80108960E94C31991
:10281000813089F40E94C1100EC0F801F782E6826F
:102820008189882341F0C80141960E94C3198823F9
:1028300011F00E94C1100F900FBE81E05FC08C812B
:102840009D81009721F40F900FBE80E057C0FF20BC
:1028500029F4CE0101960E940B1AFE2C0F900FBE98
:102860000E9412170FB6F8940F92F801858D8F3FD2
:1028700009F4158EF801868D8F3F09F4168E0F909E
:102880000FBECE010196BE016C5F7F4F0E94161AEB
:10289000882371F50FB6F8940F92F801828D0F908E
:1028A0000FBE8823F9F4F80180819181009751F4DB
:1028B0000FB6F8940F92F801828193810E94761AE4
:1028C0000F900FBE6C817D81C6010E949719C801CF
:1028D0000E94B7110E94F017882309F075CF0E945B
:1028E000C11072CFC8010E94B7110E94F0176CCFBF
:1028F000C8010E94B7110E94F01780E00F900F905E
:102900000F900F900F90DF91CF911F910F91FF903B
:10291000EF90DF90CF90BF909F908F9008950F938E
:102920001F93CF93DF93EC018A018A8D8823F1F006
:10293000CE010E9488118A8D81508A8F8D8D8F3FA4
:1029400081F488858823A1F0CE0108960E94C319DE
:10295000882381F00115110579F081E0F801808369
:102960000CC08D8D8F5F8D8F81E007C080E005C02A
:1029700081E003C081E001C081E0DF91CF911F9130
:102980000F9108950FB6F8940F92FC01828D0F906D
:102990000FBE0895FC01828D0895CF93DF93EC0163
:1029A000888199810E94EC0CCE010E94EC0CDF9191
:1029B000CF910895FC01928D81E0911180E00895FE
:1029C000FC01228D81E0938D291380E00895CF933F
:1029D000DF93EC01E091CE1AF091CF1A93838283BA
:1029E0008091D61A9091D71AC817D90768F48091A8
:1029F000D91A9091DA1A6091CE1A7091CF1A6E5F3F
:102A00007F4F0E94850F17C08091DB1A9091DC1ACE
:102A10006091CE1A7091CF1A6E5F7F4F0E94850F22
:102A20008091590290915A02C817D90720F4D09387
:102A30005A02C0935902DF91CF910895CFEDDAE1A8
:102A400088818230E8F30E94C110FACF4F925F92E2
:102A50006F927F928F929F92BF92CF92DF92EF926E
:102A6000FF920F931F93CF93DF932C014B01EA0149
:102A70003901B02E8AE290E00E944C0C8C01009744
:102A800009F4E3C0C114D10409F0F4C0CE010E94DE
:102A90004C0C6C01F801908F878B009729F4C801CA
:102AA0000E94EC0C8FEFD6C0C60165EA70E0AE0163
:102AB0000E94A71E9E0121503040F8018789908D09
:102AC0006C01C20ED31EC8014996B40140E150E02A
:102AD0000E94AE1EF80110A6CB2DF3E0FB1508F402
:102AE000C3E0F801C68BC1A788249924689481F8B3
:102AF000800E911EC4010E94580FC8010C960E94BE
:102B0000580FF8011187008784E090E08C1B910931
:102B100095878487138B028BC601B201A3010E94A3
:102B2000E90FF80191838083E114F10419F0F701B2
:102B3000118300830FB6F8940F928091D81A8F5F9B
:102B40008093D81A8091CE1A9091CF1A0097D9F518
:102B50001093CF1A0093CE1A8091D81A813009F0C1
:102B600041C0C0E0D0E0CE01880F991F880F991FA7
:102B7000880F991F8C0F9D1F8152954E0E944A0FFE
:102B80002196C430D10579F7C3E0DBE1CE010E9484
:102B90004A0F0F2EFCE0EF2EFBE1FF2EF02DC701B8
:102BA0000E944A0F85E19BE10E944A0F8EE19BE162
:102BB0000E944A0FD093DC1AC093DB1AF092DA1A03
:102BC000E092D91A0FC08091D41A882359F4E09169
:102BD000CE1AF091CF1A8689B81620F01093CF1A2A
:102BE0000093CE1AF80186899091DD1A981710F497
:102BF0008093DD1A9091DE1A9F5F9093DE1A909178
:102C0000D51A981710F48093D51A90E09C01220FE2
:102C1000331F220F331F220F331F820F931F815246
:102C2000954EB4010E945C0F0F900FBE8091D41A94
:102C3000882369F0E091CE1AF091CF1A86898B151E
:102C400040F40E94C11081E005C08FEF03C081E015
:102C500001C081E0DF91CF911F910F91FF90EF9024
:102C6000DF90CF90BF909F908F907F906F905F90FC
:102C70004F900895FC01D08EC78A16CFFC01828543
:102C800093852BE18E31920761F4248935898BE19C
:102C90002531380741F081E02115310529F080E028
:102CA000089580E0089580E008950F931F93CF93D7
:102CB000DF93EC010097B9F18091CE1A9091CF1A71
:102CC000C817D90781F10FB6F8940F92CE010E9470
:102CD0003E16813031F58E010E5F1F4FC8010E94F4
:102CE000C20F8E899091D51A981710F48093D51A37
:102CF00090E09C01220F331F220F331F220F331F3E
:102D0000820F931F8152954EB8010E945C0FE09193
:102D1000CE1AF091CF1A9E898689981710F00E94DA
:102D2000C1100F900FBEDF91CF911F910F910895A9
:102D3000EF92FF921F93CF93DF93EC010E943E1618
:102D40008130B9F58091D31A882351F5E091CE1ADC
:102D5000F091CF1A11E09E898689981708F410E047
:102D6000EE24FF246894E1F8EC0EFD1EC7010E94DA
:102D7000C20F8E899091D51A981710F48093D51AA6
:102D800090E09C01220F331F220F331F220F331FAD
:102D9000820F931F8152954EB7010E945C0F0AC0AB
:102DA000BE01645F7F4F85E19BE10E945C0F10E0F4
:102DB00001C010E0812FDF91CF911F91FF90EF9024
:102DC0000895AF92BF92CF92DF92EF92FF920F934E
:102DD0008EE195E164E572E045E550E020E030E009
:102DE00000E0EE24FF24CC24DD24AA24BB240E948E
:102DF0002615813049F4F8948093D41A1092D71A8A
:102E00001092D61A0E9482100F91FF90EF90DF90DF
:102E1000CF90BF90AF900895F8941092D41A0E946A
:102E2000C01008958091D31A8F5F8093D31A0895AC
:102E30000FB6F8940F928091D61A9091D71A0F90EE
:102E40000FBE08958091D61A9091D71A0895809157
:102E5000D81A08950F931F93CF93DF938091D31ABD
:102E6000882309F0B3C08091D61A9091D71A0196A1
:102E70009093D71A8093D61A8091D61A9091D71A28
:102E8000009799F58091DB1A9091DC1A2091D91A5C
:102E90003091DA1A3093DC1A2093DB1A9093DA1A05
:102EA0008093D91A8091D01A8F5F8093D01AE091C5
:102EB000DB1AF091DC1A8081882339F48FEF9FEFC1
:102EC00090935A028093590210C0E091DB1AF0915E
:102ED000DC1A0580F681E02D0680F781E02D8281E5
:102EE000938190935A02809359022091D61A30917F
:102EF000D71A8091590290915A022817390708F47D
:102F00006AC0E091DB1AF091DC1A8081882399F085
:102F1000E091DB1AF091DC1A0580F681E02DC68184
:102F2000D7818A819B812091D61A3091D71A281790
:102F30003907F8F419C08FEF9FEF90935A028093EE
:102F4000590249C0E091DB1AF091DC1A0580F68144
:102F5000E02DC681D7818A819B812091D61A30913C
:102F6000D71A2817390728F490935A0280935902E8
:102F700032C08E010E5F1F4FC8010E94C20F8C89A4
:102F80009D89009721F0CE010C960E94C20F8E8978
:102F90009091D51A981710F48093D51A90E09C015F
:102FA000220F331F220F331F220F331F820F931F55
:102FB0008152954EB8010E945C0FE091DB1AF091AE
:102FC000DC1A8081882309F0BDCFB5CF8091D21A59
:102FD0008F5F8093D21ADF91CF911F910F91089547
:102FE000AF92BF92CF92DF92EF92FF920F931F9317
:102FF000CF93DF930FB6F8940F928091D31A81503C
:103000008093D31A8091D31A882309F069C08091E4
:10301000D81A882381F567C0D601ED91FC91C6814D
:10302000D781CE010C960E94C20F8E010E5F1F4FFA
:10303000C8010E94C20F8E899091D51A981710F47A
:103040008093D51A90E09C01220F331F220F331F6B
:10305000220F331F820F931F8152954EB8010E9499
:103060005C0FE091CE1AF091CF1A9E89868998174D
:1030700088F0BA2C0FC0BB240F2EF5E1EF2EFBE138
:10308000FF2EF02D0F2EFAE1CF2EFBE1DF2EF02DDB
:10309000AA24A394F7018081882309F0BDCF8091F1
:1030A000D21A882381F08091D21A882399F00E9445
:1030B0002A178091D21A81508093D21A8091D21A05
:1030C0008823A9F707C0F1E0BF1621F08091D11A3B
:1030D000813041F41092D11A0E94C11081E003C0E6
:1030E00080E001C080E00F900FBEDF91CF911F9173
:1030F0000F91FF90EF90DF90CF90BF90AF90089529
:10310000CF93DF93EC010097B1F00E9412178091EA
:10311000D61A9091D71AC80FD91F8091CE1A9091C4
:10312000CF1A02960E94C20FCE010E94E7140E949D
:10313000F017882311F40E94C110DF91CF910895F8
:103140000F931F93CF93DF938C01EB010E94121713
:10315000F80180819181C80FD91F2091D61A309132
:10316000D71A2817390768F4C817D90750F580917E
:10317000D61A9091D71AD183C0838C179D07B0F4CB
:103180000BC0C817D907C8F08091D61A9091D71AEA
:103190008C179D0790F015C08091CE1A9091CF1A90
:1031A00002960E94C20FCE010E94E7140E94F017FF
:1031B000882359F40E94C11008C0F801D183C0834C
:1031C000EBCFF801D183C083F1CFDF91CF911F9175
:1031D0000F9108958091D31A882399F48091D51A7C
:1031E00090E0FC01EE0FFF1FEE0FFF1FEE0FFF1F21
:1031F0008E0F9F1FFC01E152F54E8081882329F03C
:103200001BC081E08093D11A08958091D51A815016
:103210008093D51A8091D51A90E0FC01EE0FFF1F24
:10322000EE0FFF1FEE0FFF1F8E0F9F1FFC01E152DD
:10323000F54E8081882349F38091D51A90E0FC01F6
:10324000EE0FFF1FEE0FFF1FEE0FFF1FE80FF91F1E
:10325000E152F54EA181B28112960D90BC91A02D44
:10326000B283A183CF010396A817B90731F4129650
:103270008D919C911397928381830180F281E02D3F
:10328000868197819093CF1A8093CE1A0895EF92FA
:10329000FF920F931F93CF93DF937C010FB6F894A7
:1032A0000F928091CE1A9091CF1AE816F90621F06C
:1032B000E114F10441F402C0EE24FF24C091CE1ABF
:1032C000D091CF1A01C0E7018E010E5F1F4FC801D8
:1032D0000E94C20F8C899D89009721F0CE010C9627
:1032E0000E94C20F8EE19BE1B8010E945C0F0F901B
:1032F0000FBEE114F104A1F48091D41A882319F0CF
:103300000E94C1100DC090911E1B8091D81A981771
:1033100029F41092CF1A1092CE1A02C00E94EA1815
:10332000DF91CF911F910F91FF90EF900895CF9370
:10333000DF93EB016091CE1A7091CF1A645F7F4FDB
:103340000E94850F8091CE1A9091CF1A02960E940A
:10335000C20F8FEFCF3FD80759F46091CE1A70910A
:10336000CF1A6E5F7F4F8EE19BE10E945C0F08C019
:103370008091D61A9091D71A8C0F9D1F0E94E71446
:10338000DF91CF9108950F931F93CF93DF93DC01CB
:103390001596ED91FC91169706811781E8012C9600
:1033A000CE010E94C20F8091D31A8823E9F4E8016C
:1033B0002296CE010E94C20FF80186899091D51AFB
:1033C000981710F48093D51A90E09C01220F331FB8
:1033D000220F331F220F331F820F931F8152954EEE
:1033E000BE010E945C0F05C085E19BE1BE010E9409
:1033F0005C0FE091CE1AF091CF1A81E0D801569679
:103400002C9156979689291708F480E0DF91CF9187
:103410001F910F910895FC018091D01A80838091B3
:10342000D61A9091D71A928381830895FC01DB010B
:103430000FB6F8940F924D915C9111976FEF4F3F3B
:10344000560751F18091D01A9081981749F0209138
:10345000D61A3091D71A8181928128173907F0F452
:103460008091D61A9091D71A21813281821B930BB9
:1034700084179507A8F48091D61A9091D71AB901AC
:10348000681B790BCB01840F951F8D939C93CF0103
:103490000E940B1A80E005C080E003C081E001C0FB
:1034A00081E00F900FBE089581E08093D11A0895B6
:1034B000009729F4E091CE1AF091CF1A01C0FC01D7
:1034C0000788F08DE02D8081853A41F4319680E0C7
:1034D00090E001962191253AE1F3089580E090E093
:1034E00008958091CE1A9091CF1A08950F931F934B
:1034F000CF93DF93EC01009709F44DC08E89E091E2
:10350000CE1AF091CF1A9689891708F044C0E0913D
:10351000CE1AF091CF1A968924E030E0291B3109A8
:103520003D872C8790E09C01220F331F220F331F11
:10353000220F331F820F931F8152954E2A853B85A0
:103540002817390711F58E010E5F1F4FC8010E9421
:10355000C20FE091CE1AF091CF1A86898E8B90918E
:10356000D51A981710F48093D51A90E09C01220F79
:10357000331F220F331F220F331F820F931F8152DD
:10358000954EB8010E945C0F06C0E091CE1AF091F2
:10359000CF1A86898E8BDF91CF911F910F9108955D
:1035A0000F931F93CF93DF93EC01009749F19E890E
:1035B00089A5981729F18E010E5F1F4FC8010E943F
:1035C000C20F49A54E8B242F30E084E090E0821B8F
:1035D000930B9D878C878091D51A841710F44093A4
:1035E000D51AC901880F991F880F991F880F991F35
:1035F000280F391FC9018152954EB8010E945C0FF6
:10360000DF91CF911F910F910895CF92DF92EF92AA
:10361000FF926A017B01689413F8F694E794D794BB
:10362000C7941694D1F79C0140E050E0C701B60161
:103630000E94031EDA01C9010197A109B109492FAE
:103640005A2F6B2F77274093C5008093C40088E1E1
:103650008093C10086E08093C200E0ECF0E08081BE
:103660008D7F8083FF90EF90DF90CF900895E0EC06
:10367000F0E0908195FFFDCF8093C6000895E0ECC7
:10368000F0E0908195FFFDCF8093C6000895E0ECB7
:10369000F0E080818823ECF78091C60008955058AF
:1036A000BB27AA270ED0A0C169D130F06ED120F07F
:1036B00031F49F3F11F41EF45EC10EF4E095E7FB78
:1036C00054C1E92FB3D180F3BA1762077307840797
:1036D000950718F071F49EF5CBC10EF4E0950B2E12
:1036E000BA2FA02D0B01B90190010C01CA01A00154
:1036F0001124FF27591B99F0593F50F4503E68F1AF
:103700001A16F040A22F232F342F4427585FF3CFEF
:10371000469537952795A795F0405395C9F77EF4C0
:103720001F16BA0B620B730B840BBAF09150A1F009
:10373000FF0FBB1F661F771F881FC2F70EC0BA0F8F
:10374000621F731F841F48F4879577956795B79517
:10375000F7959E3F08F0B3CF9395880F08F099270F
:10376000EE0F979587950895DCD008F481E00895D1
:1037700014D1E3954AC10CD037C107D140F0FED037
:1037800030F021F45F3F19F0F0C0511172C1F3C065
:103790004DD198F39923C9F35523B1F3951B550BDC
:1037A000BB27AA2762177307840738F09F5F5F4F14
:1037B000220F331F441FAA1FA9F333D00E2E3AF055
:1037C000E0E830D091505040E695001CCAF729D06F
:1037D000FE2F27D0660F771F881FBB1F26173707BE
:1037E0004807AB07B0E809F0BB0B802DBF01FF27EE
:1037F00093585F4F2AF09E3F510568F0B6C039C11B
:103800005F3FECF3983EDCF3869577956795B79527
:10381000F7959F5FC9F7880F911D9695879597F942
:103820000895E1E0660F771F881FBB1F62177307BB
:103830008407BA0720F0621B730B840BBA0BEE1FD0
:1038400088F7E095089504D06894B11112C10895E5
:10385000F5D088F09F5790F0B92F9927B751A0F075
:10386000D1F0660F771F881F991F1AF0BA95C9F714
:1038700012C0B13081F0FCD0B1E00895F9C0672FDB
:10388000782F8827B85F39F0B93FCCF386957795C4
:103890006795B395D9F73EF49095809570956195AD
:1038A0007F4F8F4F9F4F0895E89409C097FB3EF4D8
:1038B00090958095709561957F4F8F4F9F4F99237D
:1038C000A9F0F92F96E9BB279395F69587957795FB
:1038D0006795B795F111F8CFFAF4BB0F11F460FFBB
:1038E0001BC06F5F7F4F8F4F9F4F16C0882311F013
:1038F00096E911C0772321F09EE8872F762F05C027
:10390000662371F096E8862F70E060E02AF09A95C1
:10391000660F771F881FDAF7880F9695879597F9B6
:103920000895990F0008550FAA0BE0E8FEEF161650
:103930001706E807F907C0F012161306E407F507A3
:1039400098F0621B730B840B950B39F40A2661F017
:10395000232B242B252B21F408950A2609F4A140BA
:10396000A6958FEF811D811D089597F99F6780E8C7
:1039700070E060E008959FEF80EC089500240A94C1
:103980001616170618060906089500240A9412163A
:103990001306140605060895EECF50D0E8F3E89418
:1039A000E0E0BB279F57F0F02AED3FE049EC06C06E
:1039B000EE0FBB0F661F771F881F28F0B23A620711
:1039C0007307840728F0B25A620B730B840BE395DC
:1039D0009A9572F7803830F49A95BB0F661F771F5F
:1039E000881FD2F79048BAC0092E0394000C11F436
:1039F000882352F0BB0F40F4BF2B11F460FF04C0CA
:103A00006F5F7F4F8F4F9F4F0895EF93E0FF06C08A
:103A1000A2EA2AED3FE049EC5FEB53DEE5DF0F90D1
:103A2000039401FC9058E4EEF0E0A4C057FD9058D8
:103A3000440F551F59F05F3F71F04795880F97FB72
:103A4000991F61F09F3F79F087950895121613062C
:103A50001406551FF2CF4695F1DF08C0161617065B
:103A60001806991FF1CF8695710561050894089590
:103A7000E894BB2766277727CB0197F9089551DF94
:103A800008F48FEF08950BD0AFCF78DF28F07DDFFB
:103A900018F0952309F069CF6ECF1124EACFC6DF65
:103AA000A0F3959FD1F3950F50E0551F629FF00151
:103AB000729FBB27F00DB11D639FAA27F00DB11DAA
:103AC000AA1F649F6627B00DA11D661F829F222733
:103AD000B00DA11D621F739FB00DA11D621F839FBA
:103AE000A00D611D221F749F3327A00D611D231F90
:103AF000849F600D211D822F762F6A2F11249F57DE
:103B000050408AF0E1F088234AF0EE0FFF1FBB1F00
:103B1000661F771F881F91505040A9F79E3F51059F
:103B200070F023CFA6CF5F3FECF3983EDCF3869591
:103B300077956795B795F795E7959F5FC1F7FE2B4A
:103B4000880F911D9695879597F908959F9325DF86
:103B50000F9007FCEE5F59CF9F3F31F0915020F45A
:103B6000879577956795B795880F911D9695879559
:103B700097F908959F938F937F936F93FF93EF939C
:103B80009B01AC0180DFEF91FF9105D02F913F9118
:103B90004F915F9178CFDF93CF931F930F93FF9255
:103BA000EF92DF927B018C01689405C0DA2EEF0161
:103BB00076DFFE01E894A5912591359145915591C7
:103BC000AEF3EF017EDDFE019701A801DA9479F7EB
:103BD000DF90EF90FF900F911F91CF91DF910895AB
:103BE00097FB092E07260AD077FD04D02ED006D0E9
:103BF00000201AF4709561957F4F0895F6F790951F
:103C000081959F4F0895A1E21A2EAA1BBB1BFD01AF
:103C10000DC0AA1FBB1FEE1FFF1FA217B307E407AB
:103C2000F50720F0A21BB30BE40BF50B661F771F03
:103C3000881F991F1A9469F76095709580959095E3
:103C40009B01AC01BD01CF010895AA1BBB1B51E133
:103C500007C0AA1FBB1FA617B70710F0A61BB70BFC
:103C6000881F991F5A95A9F780959095BC01CD01A1
:103C700008958F929F92AF92BF92CF92DF92EF9270
:103C8000FF92CF93DF93EC0188819981AA81BB8158
:103C90000097A105B10521F484E299EDABE5B7E009
:103CA000BC01CD012DE133EF41E050E00E94DC1E6C
:103CB00049015A0127EA31E440E050E00E94BD1E6C
:103CC0006B017C01C501B4012CEE34EF4FEF5FEFC7
:103CD0000E94BD1EDC01CB01C80ED91EEA1EFB1ED0
:103CE000F7FE08C08FEF9FEFAFEFBFE7C80ED91EFA
:103CF000EA1EFB1EC882D982EA82FB82C6019F7738
:103D0000DF91CF91FF90EF90DF90CF90BF90AF9079
:103D10009F908F9008950E94391E08958BE592E040
:103D20000E94391E0895A0E0B0E080935B0290935A
:103D30005C02A0935D02B0935E020895FB01DC017A
:103D400002C001900D9241505040D8F70895DC0117
:103D500001C06D9341505040E0F70895FB01DC0134
:103D60004150504048F001900D920020C9F701C029
:103D70001D9241505040E0F70895629FD001739F1B
:103D8000F001829FE00DF11D649FE00DF11D929FF7
:103D9000F00D839FF00D749FF00D659FF00D992736
:103DA000729FB00DE11DF91F639FB00DE11DF91F5A
:103DB000BD01CF011124089597FB092E05260ED0D1
:103DC00057FD04D020DF0AD0001C38F450954095F0
:103DD000309521953F4F4F4F5F4F0895F6F79095DF
:103DE0008095709561957F4F8F4F9F4F0895F89400
:023DF000FFCF03
:103DF200690062007500640073746172732E706EE4
:103E02006700736869702E706E670062756C6C650E
:103E1200742E706E670077696E2E706E67006C6F1D
:103E220073652E706E670061312E706E67006132AD
:103E32002E706E670061332E706E670037023E028D
:103E42004502001849444C4500FFFF0100000000F4
:00000001FF
