:100000000C9472000C9494000C9494000C94940042
:100010000C9494000C9494000C9494000C94940010
:100020000C940F040C9494000C9494000C94940081
:100030000C9494000C94D6030C9494000C949400AB
:100040000C9494000C9494000C9494000C949400E0
:100050000C9494000C9494000C9494000C949400D0
:100060000C9494000C9494000C9494000C949400C0
:100070000C9494000C9494000C9494000C949400B0
:100080000C9487060C9494000C9494000C949400A7
:100090000C9494000C9494000C9494000C94940090
:1000A0000C9494000C9494000C9494000C94940080
:1000B0000C9494000C9494000C9494000C94940070
:1000C0000C9494000C9494000C9494000C94940060
:1000D0000C9494000C9494000C9494000C94940050
:1000E0000C94940011241FBECFEFD1E2DEBFCDBF30
:1000F00000E00CBF12E0A0E0B2E0E0E5F0E200E0DA
:100100000BBF02C007900D92A832B107D9F71BBEF2
:100110001AE1A8E2B2E001C01D92A33CB107E1F7E9
:100120000E9472030C9426100C9400001DB88FEFEF
:1001300081B982B9089582E08093700080EC809349
:10014000B0008BE08093B10087E78093B3000895FF
:10015000EAE6F0E0808180648083EF9A0895AF92B0
:10016000BF92CF92DF92EF92FF920F931F93CF93A4
:10017000DF936C01E62EF42E8AE190E00E94D40217
:100180008C01009709F462C08091280290912902A5
:10019000009739F51093290200932802CBE2D2E0B0
:1001A000CE010E944C04CE0109960E944C04CDE37E
:1001B000D2E0CE010E944C040F2EF6E4AF2EF2E006
:1001C000BF2EF02DC5010E944C048FE492E00E94E6
:1001D0004C04D0935902C0935802B0925B02A09293
:1001E0005A02CE2DE110C1E0F801118E108EC68B9F
:1001F000F78AC192D1927F01CF010E945A04C801AF
:100200000C960E945A04F80111870087138B028B09
:1002100084E090E08C1B9109958784878689909172
:100220002A02981710F480932A0290E09C01220F72
:10023000331F220F331F220F331F820F931F855D41
:100240009D4FB7010E945E0481E001C08FEFDF91F6
:10025000CF911F910F91FF90EF90DF90CF90BF90C3
:10026000AF9008950F931F93CF93DF938B01C091AD
:100270005C02D0915D02C80FD91F80912802909135
:10028000290202960E94C404E0912802F0912902FA
:10029000D383C28380915C0290915D02C817D90715
:1002A00050F4BF016E5F7F4F80915A0290915B02C4
:1002B0000E94870409C0BF016E5F7F4F8091580282
:1002C000909159020E9487040115110549F060912F
:1002D000280270912902645F7F4FC8010E94870441
:1002E000DF91CF911F910F910895CF92DF92EF92FE
:1002F000FF920F931F93CF93DF9380914F02882338
:10030000B9F10F2EF4E5EF2EF2E0FF2EF02D0F2EB7
:10031000FFE4CF2EF2E0DF2EF02DF894D701ED911F
:10032000FC91C681D781CE010C960E94C4047894BA
:100330008E010E5F1F4FC8010E94C4048E899091E8
:100340002A02981710F480932A0290E09C01220F51
:10035000331F220F331F220F331F820F931F855D20
:100360009D4FB8010E945E04F60180818823A9F6A2
:100370000E941A0C20915E0230915F02821B930B47
:10038000909361028093600274C020915C0230916E
:100390005D022F5F3F4F30935D0220935C02019717
:1003A00090936102809360022115310581F4809160
:1003B00058029091590220915A0230915B02309379
:1003C00059022093580290935B0280935A02E09165
:1003D0005802F09159028081882309F44AC00580AF
:1003E000F681E02DC681D7812A813B8180915C0214
:1003F00090915D028217930778F43BC00580F681E7
:10040000E02DC681D7812A813B8180915C02909149
:100410005D028217930768F1F8948E010E5F1F4FFB
:10042000C8010E94C4048C899D89009721F0CE01E7
:100430000C960E94C40478948E8990912A02981791
:1004400010F480932A0290E09C01220F331F220FA8
:10045000331F220F331F820F931F855D9D4FB801FD
:100460000E945E04E0915802F09159028081882335
:1004700029F68091600290916102009709F085CF82
:1004800080915C0290915D0290935F0280935E0286
:1004900020912A02822F90E0FC01EE0FFF1FEE0F49
:1004A000FF1FEE0FFF1FE80FF91FE55DFD4F3081C5
:1004B0003323D9F4222331F447C0222319F42093A3
:1004C0002A0242C02150822F90E0FC01EE0FFF1F54
:1004D000EE0FFF1FEE0FFF1FE80FF91FE55DFD4F49
:1004E0003081332351F320932A02FC01EE0FFF1FCA
:1004F000EE0FFF1FEE0FFF1F8E0F9F1FFC01E55D2C
:10050000FD4FA181B28112960D90BC91A02DB283B6
:10051000A183CF010396A817B90731F412968D91E4
:100520009C911397928381830180F281E02DA681B3
:10053000B781B0932902A0932802ED91FC91119705
:10054000CD0157966C911995DF91CF911F910F9125
:10055000FF90EF90DF90CF9008950F931F93CF936C
:10056000DF93DC011596ED91FC91169706811781BA
:10057000E8012C96CE010E94C4048FE492E0BE01F3
:100580000E945E04E0912802F091290281E0D801E6
:1005900056962C9156979689291708F480E0DF919A
:1005A000CF911F910F9108950F931F93CF93DF93D6
:1005B000EC010E94140C0091620210916302C00FC2
:1005C000D11F88E1C030D80750F40C171D0750F434
:1005D0000C591D4FD0936302C093620205C000E026
:1005E00010E002C000E010E00E94F20C802F912F7A
:1005F000DF91CF911F910F9108950895109263029A
:10060000109262020895209162023091630280E0AC
:1006100098E1821B930B0895C2EBD0E08091BF1A42
:100620009091C01A60E070E04FEF5FEF20E00E9411
:10063000C70882B1805882B91882F0CFC3EBD0E0EE
:100640000F2EF7E7FF2EF02D0EE112E00F2EFAEF3E
:10065000CF2EDD24F02D0F2EF4EDEF2EF02D0F2EEA
:10066000FDE7AF2EBB24F02D8091C11A9091C21AE4
:1006700060E070E04FEF5FEF20E00E94C70884E188
:1006800090E00E94820D679B06C0169AE882F801EE
:10069000B182A08205C01698F882F801D182C0828A
:1006A000EF9AE2CFCF93DF930F920F92CDB7DEB7E1
:1006B0008C010E941A0C9A838983EE24FF24E39410
:1006C00022B1C701F801008002C0880F991F0A9467
:1006D000E2F7822782B962817381CE0101960E947E
:1006E000A20DEECFAF92BF92CF92DF92EF92FF9228
:1006F0000F930E9496000E949B000E94A80081E038
:1007000060E043E00E9499079093C21A8093C11A57
:10071000009739F060E070E040E050E020E00E9497
:10072000CA0781E060E043E00E9499079093C01AF5
:100730008093BF1A009739F060E070E040E050E02D
:1007400020E00E94CA0782E593E060E072E045E5A0
:1007500050E02CE132E001E0EE24FF24CC24DD2443
:10076000AA24BB240E94280A8EE193E06AE072E08A
:1007700045E550E020E030E002E00E94280A8CE0ED
:1007800093E063E172E045E550E020E030E001E015
:100790000E94280A0E94E30B80E090E00F91FF90F6
:1007A000EF90DF90CF90BF90AF9008951F920F927F
:1007B0000FB60F920BB60F9211242F933F934F93C6
:1007C0005F936F937F938F939F93AF93BF93EF93B9
:1007D000FF931092641A8091BF1A9091C01A60E042
:1007E00070E044E65AE120E00E9495088091641A86
:1007F000813011F40E94C305FF91EF91BF91AF9139
:100800009F918F917F916F915F914F913F912F9128
:100810000F900BBE0F900FBE0F901F9018951F9258
:100820000F920FB60F920BB60F9211242F933F9396
:100830004F935F936F937F938F939F93AF93BF93E8
:10084000EF93FF93EF988CB380788CBB1092651A6E
:100850008091C11A9091C21A60E070E045E65AE1B9
:1008600020E00E9495088091651A813011F40E9461
:10087000C305FF91EF91BF91AF919F918F917F91B0
:100880006F915F914F913F912F910F900BBE0F9001
:100890000FBE0F901F901895FC01039692838183E1
:1008A0002FEF3FEF3483238396838583908787835D
:1008B00010820895FC01118610860895CF93DF936E
:1008C000EC01FB0189819A81DC0112962D913C910A
:1008D00013973383228329813A81358324831296A7
:1008E0002D913C911397D90115967C936E93149793
:1008F000DC0113967C936E9312977A836983D18778
:10090000C08788818F5F8883DF91CF910895CF93CF
:10091000DF93AC01EB01288139818FEF2F3F38073E
:1009200021F4FA01A781B08518C0DA011396FA0103
:1009300085819681FC01808191812817390768F0B3
:1009400012960D90BC91A02D1296ED91FC911397EB
:10095000808191812817390798F71296ED91FC91C3
:100960001397FB83EA83D583C483BD83AC8313963B
:10097000DC93CE93129759874887FA0180818F5F65
:100980008083DF91CF910895FC01A281B38184819E
:10099000958115969C938E931497A481B58182813D
:1009A000938113969C938E931297A085B18511968F
:1009B0008D919C9112978E179F0731F484819581B8
:1009C00012969C938E931197118610868C9181506C
:1009D0008C938C91089521E1FC012083319732E2C0
:1009E0003083FC013297A3E3A083FC01339760833B
:1009F000FC0134977083FC0135971082FC01369717
:100A00001082FC01379760E86083FC013897108200
:100A1000FC0139971082FC013A971082FC013B9748
:100A200062E06083FC013C9763E06083FC013D97DA
:100A300064E06083FC013E9765E06083FC013F97C2
:100A400066E06083FC01709767E06083FC0171974A
:100A500068E06083FC01729769E06083FC01739732
:100A600060E16083FC0174972083FC01759722E1AB
:100A70002083FC01769723E12083FC01779724E112
:100A80002083FC01789725E12083FC01799726E1FA
:100A90002083FC017A9727E12083FC017B9728E1E2
:100AA0002083FC017C9729E12083FC017D9720E2D3
:100AB0002083FC017E9721E22083FC017F97308315
:100AC000FC01B09723E22083FC01B1974083FC0135
:100AD000B2975083FC01B39726E22083FC01B497C0
:100AE00027E22083FC01B59728E22083FC01B6971A
:100AF00029E22083FC01B79720E32083FC01B8970B
:100B000021E32083899708951092990089EF8093BB
:100B100098008BE080939100E1E7F0E080818260B3
:100B20008083A091661AB091671ACD91CDBFDD91F7
:100B3000DEBFFF91EF91DF91CF91BF91AF919F9178
:100B40008F917F916F915F914F913F912F911F9165
:100B50000F91FF90EF90DF90CF90BF90AF909F905C
:100B60008F907F906F905F904F903F902F901F904D
:100B70000F900CBE0F900BBE0F900FBE0F900895FC
:100B800081E0089508950F920FB6F8940F920BB676
:100B90000F920CB60F921F9211242F923F924F92F8
:100BA0005F926F927F928F929F92AF92BF92CF92FD
:100BB000DF92EF92FF920F931F932F933F934F93E8
:100BC0005F936F937F938F939F93AF93BF93CF93D5
:100BD000DF93EF93FF93A091661AB091671A0DB659
:100BE0000D920EB60D920E94EC0DA091661AB09176
:100BF000671ACD91CDBFDD91DEBFFF91EF91DF91FF
:100C0000CF91BF91AF919F918F917F916F915F91A4
:100C10004F913F912F911F910F91FF90EF90DF9097
:100C2000CF90BF90AF909F908F907F906F905F908C
:100C30004F903F902F901F900F900CBE0F900BBEC7
:100C40000F900FBE0F9008950F920FB6F8940F9269
:100C50000BB60F920CB60F921F9211242F923F9257
:100C60004F925F926F927F928F929F92AF92BF92BC
:100C7000CF92DF92EF92FF920F931F932F933F93A8
:100C80004F935F936F937F938F939F93AF93BF9394
:100C9000CF93DF93EF93FF93A091661AB091671AF9
:100CA0000DB60D920EB60D920E942C0C0E94EC0D0A
:100CB000A091661AB091671ACD91CDBFDD91DEBFCC
:100CC000FF91EF91DF91CF91BF91AF919F918F9164
:100CD0007F916F915F914F913F912F911F910F9154
:100CE000FF90EF90DF90CF90BF90AF909F908F904C
:100CF0007F906F905F904F903F902F901F900F903C
:100D00000CBE0F900BBE0F900FBE0F9008950E9467
:100D100024061895CF93DF93DC01CD91DC911197D8
:100D2000209721F15C964C915C9716962D913C9101
:100D30001797240F311D17963C932E9316971296F2
:100D4000ED91FC9113972E173F0720F01796DC9337
:100D5000CE93169716963C91169717962C91862F40
:100D6000972F632F722F50E00E940710DF91CF91D1
:100D700008950F931F93CF93DF93EC010FB6F89470
:100D80000F928E8D1816C4F48989882329F414C013
:100D90008989882321F410C08E010F5E1F4FC8017E
:100DA0000E94C50E882311F00E94560F8E8D81502F
:100DB0008E8F8E8D181664F38FEF8E8F0F900FBE6F
:100DC0000FB6F8940F928D8D1816C4F48885882379
:100DD00029F414C08885882321F410C08E01085F8F
:100DE0001F4FC8010E94C50E882311F00E94560FA4
:100DF0008D8D81508D8F8D8D181664F38FEF8D8FB3
:100E00000F900FBEDF91CF911F910F910895CF9357
:100E1000DF93EC012C8D222359F48881998100976E
:100E2000E1F58A819B810E94D20F1B821A8235C014
:100E30004423B9F48C819D81422F50E00E94071019
:100E40002C8D8C819D81820F911D9D838C832A81A5
:100E50003B818217930708F1888199819D838C8358
:100E60001CC08E819F81422F50E00E9407104C8D44
:100E700050E0509541955F4F8E819F81840F951F63
:100E80009F838E83288139818217930730F48A816A
:100E90009B81480F591F5F834E838A8D8F5F8A8F96
:100EA000DF91CF910895CF93DF93EC010FB6F894C3
:100EB0000F92488159812B8D30E0EC8DF0E02E9F10
:100EC000C0012F9F900D3E9F900D1124840F951F00
:100ED0009B838A831A8E5D834C83C9010197E89FA7
:100EE0009001E99F300DF89F300D1124240F351F1C
:100EF0003F832E838FEF8D8F8E8F662361F48885DD
:100F0000882389F0CE0108960E94C50E813059F4DD
:100F10000E94C30508C0CE0108960E944C04CE0171
:100F200041960E944C040F900FBE81E0DF91CF915B
:100F300008950F931F93CF93DF93182F062F8823C5
:100F4000F9F08FE190E00E94D402EC010097D9F013
:100F5000019FC001112401960E94D40299838883C5
:100F6000009741F01B8F0C8FCE0161E00E94530768
:100F7000CE010BC0CE010E94FD0280E090E005C0D2
:100F800080E090E002C080E090E0DF91CF911F917F
:100F90000F9108958F929F92BF92CF92DF92EF921E
:100FA000FF920F931F93CF93DF9300D00F920F9276
:100FB000CDB7DEB78C014B015D834C83B22EFF248D
:100FC000EE24E394CC24DD246894C3F8C80ED91E23
:100FD0000FB6F8940F92F801928D838D9817A8F4AC
:100FE000C801B4014B2D0E940707F80181898823AD
:100FF00041F0C80141960E94C50E813011F40E9453
:10100000C3050F900FBE81E052C08C819D81009777
:1010100021F40F900FBE80E04AC0FF2029F4CE01DA
:1010200001960E940D0FFE2C0F900FBE0E94140C13
:101030000FB6F8940F92F801858D8F3F09F4158E45
:10104000F801868D8F3F09F4168E0F900FBECE01EA
:101050000196BE016C5F7F4F0E94180F882309F52F
:101060000FB6F8940F92F801928D0F900FBEF80111
:10107000838D981781F46C817D81C6010E94990E41
:10108000C8010E94B9060E94F20C882309F0A0CF83
:101090000E94C3059DCFC8010E94B9060E94F20CB0
:1010A00097CFC8010E94B9060E94F20C80E00F9011
:1010B0000F900F900F900F90DF91CF911F910F9194
:1010C000FF90EF90DF90CF90BF909F908F9008950A
:1010D000CF93DF938FE190E00E94D402EC01009760
:1010E000F9F01B821A82198218821D821C821F82CB
:1010F0001E821A8E81E08B8F1C8E8FEF8D8F8E8FCC
:10110000CE0108960E944C04CE0141960E944C04E8
:10111000CE0160E070E040E050E020E00E94CA07AD
:101120008C2F9D2FDF91CF9108950F931F93CF9315
:10113000DF93EC018A019A8D8B8D9817E0F4CE0134
:10114000422F0E9407078E8D8F3F81F48989882363
:10115000A1F0CE0141960E94C50E882381F00115B1
:10116000110579F081E0F80180830CC08E8D8F5FCE
:101170008E8F81E007C080E005C081E003C081E080
:1011800001C081E0DF91CF911F910F9108958F925F
:101190009F92BF92CF92DF92EF92FF920F931F9395
:1011A000CF93DF9300D00F920F92CDB7DEB78C01B3
:1011B0004B015D834C83B22EFF24EE24E3940F2E6B
:1011C000F1E1CF2EDD24F02DC80ED91E0FB6F89414
:1011D0000F92F801828D8823A1F1E680F780C80183
:1011E000B4010E948A06BB20D1F4F801828D81509F
:1011F000828F80819181009729F40E94730FF801FA
:1012000093838283F80180858823B9F0C80108960A
:101210000E94C50E813089F40E94C3050EC0F801FA
:10122000F782E6828189882341F0C80141960E94B5
:10123000C50E882311F00E94C3050F900FBE81E0F8
:101240005FC08C819D81009721F40F900FBE80E0DC
:1012500057C0FF2029F4CE0101960E940D0FFE2CED
:101260000F900FBE0E94140C0FB6F8940F92F80165
:10127000858D8F3F09F4158EF801868D8F3F09F417
:10128000168E0F900FBECE010196BE016C5F7F4F90
:101290000E94180F882371F50FB6F8940F92F80189
:1012A000828D0F900FBE8823F9F4F801808191811F
:1012B000009751F40FB6F8940F92F8018281938150
:1012C0000E94780F0F900FBE6C817D81C6010E9435
:1012D000990EC8010E94B9060E94F20C882309F0F9
:1012E00075CF0E94C30572CFC8010E94B9060E9443
:1012F000F20C6CCFC8010E94B9060E94F20C80E08B
:101300000F900F900F900F900F90DF91CF911F9142
:101310000F91FF90EF90DF90CF90BF909F908F90B4
:1013200008950F931F93CF93DF93EC018A018A8D69
:101330008823F1F0CE010E948A068A8D81508A8F1F
:101340008D8D8F3F81F488858823A1F0CE0108968A
:101350000E94C50E882381F00115110579F081E006
:10136000F80180830CC08D8D8F5F8D8F81E007C069
:1013700080E005C081E003C081E001C081E0DF9131
:10138000CF911F910F9108950FB6F8940F92FC0121
:10139000828D0F900FBE0895FC01828D0895CF932A
:1013A000DF93EC01888199810E94FD02CE010E94A9
:1013B000FD02DF91CF910895FC01928D81E09111A2
:1013C00080E00895FC01228D81E0938D291380E057
:1013D0000895CF93DF93EC01E091661AF091671ABC
:1013E0009383828380916E1A90916F1AC817D907E0
:1013F00068F48091711A9091721A6091661A7091D6
:10140000671A6E5F7F4F0E94870417C08091731A1E
:101410009091741A6091661A7091671A6E5F7F4F8F
:101420000E9487048091250290912602C817D9074F
:1014300020F4D0932602C0932502DF91CF91089526
:10144000C7E7DAE188818230E8F30E94C305FACF6A
:101450004F925F926F927F928F929F92BF92CF92A4
:10146000DF92EF92FF920F931F93CF93DF932C01A4
:101470004B01EA013901B02E8AE290E00E94D402C9
:101480008C01009709F4E3C0C114D10409F0F4C041
:10149000CE010E94D4026C01F801908F878B0097D7
:1014A00029F4C8010E94FD028FEFD6C0C60165EA8B
:1014B00070E0AE010E9410109E0121503040F801F2
:1014C0008789908D6C01C20ED31EC8014996B40164
:1014D00040E150E00E941710F80110A6CB2DF3E078
:1014E000FB1508F4C3E0F801C68BC1A78824992432
:1014F000689481F8800E911EC4010E945A04C801AC
:101500000C960E945A04F8011187008784E090E04D
:101510008C1B910995878487138B028BC601B201BE
:10152000A3010E94EB04F80191838083E114F1048C
:1015300019F0F701118300830FB6F8940F92809190
:10154000701A8F5F8093701A8091661A9091671A53
:101550000097D9F51093671A0093661A8091701A54
:10156000813009F041C0C0E0D0E0CE01880F991F62
:10157000880F991F880F991F8C0F9D1F8958954EB2
:101580000E944C042196C430D10579F7CBE9DAE109
:10159000CE010E944C040F2EF4EAEF2EFAE1FF2E4A
:1015A000F02DC7010E944C048DEA9AE10E944C0480
:1015B00086EB9AE10E944C04D093741AC093731A7C
:1015C000F092721AE092711A0FC080916C1A8823FF
:1015D00059F4E091661AF091671A8689B81620F0DE
:1015E0001093671A0093661AF80186899091751A0C
:1015F000981710F48093751A9091761A9F5F9093C4
:10160000761A90916D1A981710F480936D1A90E0E5
:101610009C01220F331F220F331F220F331F820F13
:10162000931F8958954EB4010E945E040F900FBE1F
:1016300080916C1A882369F0E091661AF091671A1C
:1016400086898B1540F40E94C30581E005C08FEFA9
:1016500003C081E001C081E0DF91CF911F910F9124
:10166000FF90EF90DF90CF90BF909F908F907F90F2
:101670006F905F904F900895FC01D08EC78A16CF6F
:10168000FC01828593852AE1863B920761F42489D7
:1016900035898AE12D3A380741F081E0211531057D
:1016A00029F080E0089580E0089580E008950F9388
:1016B0001F93CF93DF93EC010097B9F18091661AE5
:1016C0009091671AC817D90781F10FB6F8940F9255
:1016D000CE010E94400B813031F58E010E5F1F4F0D
:1016E000C8010E94C4048E8990916D1A981710F455
:1016F00080936D1A90E09C01220F331F220F331F3D
:10170000220F331F820F931F8958954EB8010E94F4
:101710005E04E091661AF091671A9E89868998178F
:1017200010F00E94C3050F900FBEDF91CF911F9163
:101730000F910895EF92FF921F93CF93DF93EC01E7
:101740000E94400B8130B9F580916B1A882351F5C6
:10175000E091661AF091671A11E09E8986899817C0
:1017600008F410E0EE24FF246894E1F8EC0EFD1E6E
:10177000C7010E94C4048E8990916D1A981710F4C5
:1017800080936D1A90E09C01220F331F220F331FAC
:10179000220F331F820F931F8958954EB7010E9465
:1017A0005E040AC0BE01645F7F4F8DEA9AE10E9429
:1017B0005E0410E001C010E0812FDF91CF911F91F6
:1017C000FF90EF900895AF92BF92CF92DF92EF9289
:1017D000FF920F9380E29AE060E272E045E550E00C
:1017E00020E030E000E0EE24FF24CC24DD24AA2415
:1017F000BB240E94280A813049F4F89480936C1A23
:1018000010926F1A10926E1A0E9484050F91FF9029
:10181000EF90DF90CF90BF90AF900895F894109222
:101820006C1A0E94C205089580916B1A8F5F809395
:101830006B1A08950FB6F8940F9280916E1A9091DA
:101840006F1A0F900FBE089580916E1A90916F1AC3
:1018500008958091701A08950F931F93CF93DF938B
:1018600080916B1A882309F0B3C080916E1A909111
:101870006F1A019690936F1A80936E1A80916E1A68
:1018800090916F1A009799F58091731A9091741A3C
:101890002091711A3091721A3093741A2093731A2E
:1018A0009093721A8093711A8091681A8F5F809357
:1018B000681AE091731AF091741A8081882339F4C0
:1018C0008FEF9FEF909326028093250210C0E09146
:1018D000731AF091741A0580F681E02D0680F78165
:1018E000E02D82819381909326028093250220919E
:1018F0006E1A30916F1A8091250290912602281756
:10190000390708F46AC0E091731AF091741A808163
:10191000882399F0E091731AF091741A0580F6818A
:10192000E02DC681D7818A819B8120916E1A3091EA
:101930006F1A28173907F8F419C08FEF9FEF9093AB
:1019400026028093250249C0E091731AF091741A1F
:101950000580F681E02DC681D7818A819B81209107
:101960006E1A30916F1A2817390728F490932602BF
:101970008093250232C08E010E5F1F4FC8010E9466
:10198000C4048C899D89009721F0CE010C960E9499
:10199000C4048E8990916D1A981710F480936D1A73
:1019A00090E09C01220F331F220F331F220F331FA1
:1019B000820F931F8958954EB8010E945E04E091F2
:1019C000731AF091741A8081882309F0BDCFB5CFC6
:1019D00080916A1A8F5F80936A1ADF91CF911F916D
:1019E0000F910895AF92BF92CF92DF92EF92FF9244
:1019F0000F931F93CF93DF930FB6F8940F928091BC
:101A00006B1A815080936B1A80916B1A882309F0AE
:101A100069C08091701A882381F567C0D601ED9165
:101A2000FC91C681D781CE010C960E94C4048E0120
:101A30000E5F1F4FC8010E94C4048E8990916D1AD9
:101A4000981710F480936D1A90E09C01220F331FB9
:101A5000220F331F220F331F820F931F8958954E79
:101A6000B8010E945E04E091661AF091671A9E899F
:101A70008689981788F0BA2C0FC0BB240F2EFDEA78
:101A8000EF2EFAE1FF2EF02D0F2EF2EBCF2EFAE122
:101A9000DF2EF02DAA24A394F7018081882309F07A
:101AA000BDCF80916A1A882381F080916A1A8823B9
:101AB00099F00E942C0C80916A1A815080936A1AC6
:101AC00080916A1A8823A9F707C0F1E0BF1621F0B8
:101AD0008091691A813041F41092691A0E94C305FD
:101AE00081E003C080E001C080E00F900FBEDF9175
:101AF000CF911F910F91FF90EF90DF90CF90BF900B
:101B0000AF900895CF93DF93EC010097B1F00E945E
:101B1000140C80916E1A90916F1AC80FD91F809182
:101B2000661A9091671A02960E94C404CE010E9420
:101B3000E9090E94F20C882311F40E94C305DF9189
:101B4000CF9108950F931F93CF93DF938C01EB01F7
:101B50000E94140CF80180819181C80FD91F209137
:101B60006E1A30916F1A2817390768F4C817D90709
:101B700050F580916E1A90916F1AD183C0838C17A3
:101B80009D07B0F40BC0C817D907C8F080916E1A32
:101B900090916F1A8C179D0790F015C08091661A6E
:101BA0009091671A02960E94C404CE010E94E9092E
:101BB0000E94F20C882359F40E94C30508C0F80162
:101BC000D183C083EBCFF801D183C083F1CFDF9104
:101BD000CF911F910F91089580916B1A882399F4EA
:101BE00080916D1A90E0FC01EE0FFF1FEE0FFF1FBA
:101BF000EE0FFF1F8E0F9F1FFC01E958F54E8081ED
:101C0000882329F01BC081E08093691A0895809190
:101C10006D1A815080936D1A80916D1A90E0FC01CD
:101C2000EE0FFF1FEE0FFF1FEE0FFF1F8E0F9F1F08
:101C3000FC01E958F54E8081882349F380916D1AA3
:101C400090E0FC01EE0FFF1FEE0FFF1FEE0FFF1FD6
:101C5000E80FF91FE958F54EA181B28112960D9057
:101C6000BC91A02DB283A183CF010396A817B90719
:101C700031F412968D919C91139792838183018008
:101C8000F281E02D868197819093671A8093661A7E
:101C90000895EF92FF920F931F93CF93DF937C01F0
:101CA0000FB6F8940F928091661A9091671AE81611
:101CB000F90621F0E114F10441F402C0EE24FF24FE
:101CC000C091661AD091671A01C0E7018E010E5FBC
:101CD0001F4FC8010E94C4048C899D89009721F080
:101CE000CE010C960E94C40486EB9AE1B8010E94D2
:101CF0005E040F900FBEE114F104A1F480916C1A00
:101D0000882319F00E94C3050DC09091B61A8091E6
:101D1000701A981729F41092671A1092661A02C066
:101D20000E94EC0DDF91CF911F910F91FF90EF90EA
:101D30000895CF93DF93EB016091661A7091671A53
:101D4000645F7F4F0E9487048091661A9091671AA2
:101D500002960E94C4048FEFCF3FD80759F46091D8
:101D6000661A7091671A6E5F7F4F86EB9AE10E9448
:101D70005E0408C080916E1A90916F1A8C0F9D1F9F
:101D80000E94E909DF91CF9108950F931F93CF939C
:101D9000DF93DC011596ED91FC9116970681178172
:101DA000E8012C96CE010E94C40480916B1A88230E
:101DB000E9F4E8012296CE010E94C404F801868964
:101DC00090916D1A981710F480936D1A90E09C0111
:101DD000220F331F220F331F220F331F820F931F37
:101DE0008958954EBE010E945E0405C08DEA9AE1B5
:101DF000BE010E945E04E091661AF091671A81E0CC
:101E0000D80156962C9156979689291708F480E0A8
:101E1000DF91CF911F910F910895FC018091681A75
:101E2000808380916E1A90916F1A928381830895B6
:101E3000FC01DB010FB6F8940F924D915C91119764
:101E40006FEF4F3F560751F18091681A90819817B4
:101E500049F020916E1A30916F1A81819281281772
:101E60003907F0F480916E1A90916F1A21813281B6
:101E7000821B930B84179507A8F480916E1A90919A
:101E80006F1AB901681B790BCB01840F951F8D93D5
:101E90009C93CF010E940D0F80E005C080E003C03D
:101EA00081E001C081E00F900FBE089581E0809332
:101EB000691A0895009729F4E091661AF091671A5B
:101EC00001C0FC010788F08DE02D8081853A41F446
:101ED000319680E090E001962191253AE1F3089552
:101EE00080E090E008958091661A9091671A0895B5
:101EF0000F931F93CF93DF93EC01009709F44DC02C
:101F00008E89E091661AF091671A9689891708F010
:101F100044C0E091661AF091671A968924E030E097
:101F2000291B31093D872C8790E09C01220F331F2C
:101F3000220F331F220F331F820F931F8958954E94
:101F40002A853B852817390711F58E010E5F1F4F33
:101F5000C8010E94C404E091661AF091671A86894C
:101F60008E8B90916D1A981710F480936D1A90E0F3
:101F70009C01220F331F220F331F220F331F820FAA
:101F8000931F8958954EB8010E945E0406C0E091E7
:101F9000661AF091671A86898E8BDF91CF911F9117
:101FA0000F9108950F931F93CF93DF93EC01009748
:101FB00049F19E8989A5981729F18E010E5F1F4F5F
:101FC000C8010E94C40449A54E8B242F30E084E050
:101FD00090E0821B930B9D878C8780916D1A8417EC
:101FE00010F440936D1AC901880F991F880F991F2B
:101FF000880F991F280F391FC9018958954EB801BC
:102000000E945E04DF91CF911F910F910895FB0113
:10201000DC0102C001900D9241505040D8F7089564
:10202000DC0101C06D9341505040E0F70895FB0181
:10203000DC014150504048F001900D920020C9F75A
:1020400001C01D9241505040E0F70895F894FFCF31
:102050004C454432205461736B0042544E2054610D
:10206000736B00544D52205461736B0002007D006D
:0820700049444C4500FFFF004C
:00000001FF
