:100000000C9472000C9494000C9494000C94940042
:100010000C9494000C9494000C9494000C94940010
:100020000C9494000C9494000C9494000C94940000
:100030000C9494000C9464030C9494000C9494001D
:100040000C9494000C9494000C9494000C949400E0
:100050000C9494000C9494000C9494000C949400D0
:100060000C9494000C9494000C9494000C949400C0
:100070000C9494000C9494000C9494000C949400B0
:100080000C94D9050C9494000C9494000C94940056
:100090000C9494000C9494000C9494000C94940090
:1000A0000C9494000C9494000C9494000C94940080
:1000B0000C9494000C9494000C9494000C94940070
:1000C0000C9494000C9494000C9494000C94940060
:1000D0000C9494000C9494000C9494000C94940050
:1000E0000C94940011241FBECFEFD1E2DEBFCDBF30
:1000F00000E00CBF12E0A0E0B2E0E2ECF0E200E0D1
:100100000BBF02C007900D92A830B107D9F71BBEF4
:100110001AE1A8E0B2E001C01D92A33AB107E1F7ED
:100120000E9404030C945F100C9400008FEF81B9BF
:1001300082B9089582E08093700082EC8093B000D1
:1001400087E08093B10080E68093B3000895AF927A
:10015000BF92CF92DF92EF92FF920F931F93CF93B4
:10016000DF936C01E62EF42E8AE190E00E94CC022F
:100170008C01009709F462C08091080290910902F5
:10018000009739F51093090200930802CBE0D2E002
:10019000CE010E949E03CE0109960E949E03CDE1EE
:1001A000D2E0CE010E949E030F2EF6E2AF2EF2E0C7
:1001B000BF2EF02DC5010E949E038FE292E00E94A7
:1001C0009E03D0933902C0933802B0923B02A092B2
:1001D0003A02CE2DE110C1E0F801118E108EC68BCF
:1001E000F78AC192D1927F01CF010E94AC03C8016E
:1001F0000C960E94AC03F80111870087138B028BC9
:1002000084E090E08C1B9109958784878689909182
:100210000A02981710F480930A0290E09C01220FC2
:10022000331F220F331F220F331F820F931F855F4F
:100230009D4FB7010E94B00381E001C08FEFDF91B5
:10024000CF911F910F91FF90EF90DF90CF90BF90D3
:10025000AF9008950F931F93CF93DF938B01C091BD
:100260003C02D0913D02C80FD91F809108029091A5
:10027000090202960E941604E0910802F091090218
:10028000D383C28380913C0290913D02C817D90765
:1002900050F4BF016E5F7F4F80913A0290913B0214
:1002A0000E94D90309C0BF016E5F7F4F8091380261
:1002B000909139020E94D9030115110549F060910E
:1002C000080270910902645F7F4FC8010E94D90340
:1002D000DF91CF911F910F910895CF92DF92EF920E
:1002E000FF920F931F93CF93DF9380912F02882368
:1002F000B9F10F2EF4E3EF2EF2E0FF2EF02D0F2ECA
:10030000FFE2CF2EF2E0DF2EF02DF894D701ED9131
:10031000FC91C681D781CE010C960E941604789478
:100320008E010E5F1F4FC8010E9416048E899091A6
:100330000A02981710F480930A0290E09C01220FA1
:10034000331F220F331F220F331F820F931F855F2E
:100350009D4FB8010E94B003F60180818823A9F661
:100360000E944B0C20913E0230913F02821B930B66
:10037000909341028093400274C020913C023091DE
:100380003D022F5F3F4F30933D0220933C02019787
:1003900090934102809340022115310581F48091B0
:1003A00038029091390220913A0230913B02309309
:1003B00039022093380290933B0280933A02E091F5
:1003C0003802F09139028081882309F44AC00580FF
:1003D000F681E02DC681D7812A813B8180913C0244
:1003E00090913D028217930778F43BC00580F68117
:1003F000E02DC681D7812A813B8180913C0290917A
:100400003D028217930768F1F8948E010E5F1F4F2B
:10041000C8010E9416048C899D89009721F0CE01A5
:100420000C960E94160478948E8990910A0298176F
:1004300010F480930A0290E09C01220F331F220FD8
:10044000331F220F331F820F931F855F9D4FB8010B
:100450000E94B003E0913802F09139028081882334
:1004600029F68091400290914102009709F085CFD2
:1004700080913C0290913D0290933F0280933E0216
:1004800020910A02822F90E0FC01EE0FFF1FEE0F79
:10049000FF1FEE0FFF1FE80FF91FE55FFD4F3081D3
:1004A0003323D9F4222331F447C0222319F42093B3
:1004B0000A0242C02150822F90E0FC01EE0FFF1F84
:1004C000EE0FFF1FEE0FFF1FE80FF91FE55FFD4F57
:1004D0003081332351F320930A02FC01EE0FFF1FFA
:1004E000EE0FFF1FEE0FFF1F8E0F9F1FFC01E55F3A
:1004F000FD4FA181B28112960D90BC91A02DB283C7
:10050000A183CF010396A817B90731F412968D91F4
:100510009C911397928381830180F281E02DA681C3
:10052000B781B0930902A0930802ED91FC91119755
:10053000CD0157966C911995DF91CF911F910F9135
:10054000FF90EF90DF90CF9008950F931F93CF937C
:10055000DF93DC011596ED91FC91169706811781CA
:10056000E8012C96CE010E9416048FE292E0BE01B3
:100570000E94B003E0910802F091090281E0D801E5
:1005800056962C9156979689291708F480E0DF91AA
:10059000CF911F910F9108950F931F93CF93DF93E6
:1005A000EC010E94450C0091420210914302C00FE1
:1005B000D11F88E1C030D80750F40C171D0750F444
:1005C0000C5B1D4FD0934302C093420205C000E074
:1005D00010E002C000E010E00E942B0D802F912F50
:1005E000DF91CF911F910F910895089510924302CA
:1005F000109242020895209142023091430280E01D
:1006000098E1821B930B08950E9496000E943B097B
:100610002C981EBC0DB407FEFDCF81E08EBD0DB43D
:1006200007FEFDCF82E08EBD0DB407FEFDCF83E057
:100630008EBD80E185B912B8C0E0D0E001C0CD2FF9
:100640008C2F0E9452098FE493EC0197F1F700C0C0
:100650000000CF5FCF3FA1F7F2CFCF93DF930F9290
:100660000F92CDB7DEB70E944B0C9A83898304E0CA
:1006700011E082B1802782B98091441A0E949A09C0
:100680008091451A0E94BD098091461A8127809366
:10069000461A882341F08091441A8F5F8093441A50
:1006A00082B1812782B98091451A843619F410925B
:1006B000451A03C08F5F8093451ACE01019664EFFF
:1006C00071E00E94DB0DD5CF1F920F920FB60F92F3
:1006D0000BB60F9211242F933F934F935F936F9319
:1006E0007F938F939F93AF93BF93EF93FF9310925A
:1006F000471A8091A11A9091A21A60E070E047E435
:100700005AE120E00E94E7078091471A813011F4F6
:100710000E941505FF91EF91BF91AF919F918F912D
:100720007F916F915F914F913F912F910F900BBEF1
:100730000F900FBE0F901F9018950895FC0103961F
:10074000928381832FEF3FEF3483238396838583C6
:100750009087878310820895FC0111861086089582
:10076000CF93DF93EC01FB0189819A81DC01129622
:100770002D913C9113973383228329813A813583CC
:10078000248312962D913C911397D90115967C9351
:100790006E931497DC0113967C936E9312977A8371
:1007A0006983D187C08788818F5F8883DF91CF91EC
:1007B0000895CF93DF93AC01EB01288139818FEF4E
:1007C0002F3F380721F4FA01A781B08518C0DA015C
:1007D0001396FA0185819681FC0180819181281709
:1007E000390768F012960D90BC91A02D1296ED91EC
:1007F000FC911397808191812817390798F71296F9
:10080000ED91FC911397FB83EA83D583C483BD8369
:10081000AC831396DC93CE93129759874887FA01DD
:1008200080818F5F8083DF91CF910895FC01A28149
:10083000B3818481958115969C938E931497A4819E
:10084000B5818281938113969C938E931297A08594
:10085000B18511968D919C9112978E179F0731F457
:100860008481958112969C938E93119711861086A0
:100870008C9181508C938C91089521E1FC0120830F
:10088000319732E23083FC013297A3E3A083FC016D
:1008900033976083FC0134977083FC013597108295
:1008A000FC0136971082FC01379760E86083FC01F9
:1008B00038971082FC0139971082FC013A97108218
:1008C000FC013B9762E06083FC013C9763E060833E
:1008D000FC013D9764E06083FC013E9765E0608326
:1008E000FC013F9766E06083FC01709767E06083DE
:1008F000FC01719768E06083FC01729769E0608396
:10090000FC01739760E16083FC0174972083FC0114
:10091000759722E12083FC01769723E12083FC0177
:10092000779724E12083FC01789725E12083FC015F
:10093000799726E12083FC017A9727E12083FC0147
:100940007B9728E12083FC017C9729E12083FC012F
:100950007D9720E22083FC017E9721E22083FC0129
:100960007F973083FC01B09723E22083FC01B1978D
:100970004083FC01B2975083FC01B39726E22083A9
:10098000FC01B49727E22083FC01B59728E220837D
:10099000FC01B69729E22083FC01B79720E320836E
:1009A000FC01B89721E3208389970895109299005C
:1009B0008EE1809398008BE080939100E1E7F0E076
:1009C000808182608083A091481AB091491ACD91AC
:1009D000CDBFDD91DEBFFF91EF91DF91CF91BF9150
:1009E000AF919F918F917F916F915F914F913F91C7
:1009F0002F911F910F91FF90EF90DF90CF90BF90BC
:100A0000AF909F908F907F906F905F904F903F90AE
:100A10002F901F900F900CBE0F900BBE0F900FBE2B
:100A20000F90089581E0089508950F920FB6F894FD
:100A30000F920BB60F920CB60F921F9211242F92A9
:100A40003F924F925F926F927F928F929F92AF925E
:100A5000BF92CF92DF92EF92FF920F931F932F934B
:100A60003F934F935F936F937F938F939F93AF9336
:100A7000BF93CF93DF93EF93FF93A091481AB09168
:100A8000491A0DB60D920EB60D920E94250EA09138
:100A9000481AB091491ACD91CDBFDD91DEBFFF91CB
:100AA000EF91DF91CF91BF91AF919F918F917F9106
:100AB0006F915F914F913F912F911F910F91FF90F7
:100AC000EF90DF90CF90BF90AF909F908F907F90EE
:100AD0006F905F904F903F902F901F900F900CBEA3
:100AE0000F900BBE0F900FBE0F9008950F920FB690
:100AF000F8940F920BB60F920CB60F921F9211241E
:100B00002F923F924F925F926F927F928F929F921D
:100B1000AF92BF92CF92DF92EF92FF920F931F930B
:100B20002F933F934F935F936F937F938F939F93F5
:100B3000AF93BF93CF93DF93EF93FF93A091481AA6
:100B4000B091491A0DB60D920EB60D920E945D0C31
:100B50000E94250EA091481AB091491ACD91CDBF9F
:100B6000DD91DEBFFF91EF91DF91CF91BF91AF910A
:100B70009F918F917F916F915F914F913F912F91B5
:100B80001F910F91FF90EF90DF90CF90BF90AF90AB
:100B90009F908F907F906F905F904F903F902F909D
:100BA0001F900F900CBE0F900BBE0F900FBE0F90BA
:100BB00008950E9476051895CF93DF93DC01CD91BF
:100BC000DC911197209721F15C964C915C971696D9
:100BD0002D913C911797240F311D17963C932E931E
:100BE00016971296ED91FC9113972E173F0720F060
:100BF0001796DC93CE93169716963C9116971796F8
:100C00002C91862F972F632F722F50E00E94401057
:100C1000DF91CF9108950F931F93CF93DF93EC0152
:100C20000FB6F8940F928E8D1816C4F48989882314
:100C300029F414C08989882321F410C08E010F5E25
:100C40001F4FC8010E94FE0E882311F00E948F0FD3
:100C50008E8D81508E8F8E8D181664F38FEF8E8F50
:100C60000F900FBE0FB6F8940F928D8D1816C4F426
:100C70008885882329F414C08885882321F410C02E
:100C80008E01085F1F4FC8010E94FE0E882311F0DD
:100C90000E948F0F8D8D81508D8F8D8D181664F36E
:100CA0008FEF8D8F0F900FBEDF91CF911F910F911E
:100CB0000895CF93DF93EC012C8D222359F4888182
:100CC00099810097E1F58A819B810E940B101B821C
:100CD0001A8235C04423B9F48C819D81422F50E0A3
:100CE0000E9440102C8D8C819D81820F911D9D83CF
:100CF0008C832A813B818217930708F1888199812F
:100D00009D838C831CC08E819F81422F50E00E9466
:100D100040104C8D50E0509541955F4F8E819F81E2
:100D2000840F951F9F838E832881398182179307B3
:100D300030F48A819B81480F591F5F834E838A8DCF
:100D40008F5F8A8FDF91CF910895CF93DF93EC016E
:100D50000FB6F8940F92488159812B8D30E0EC8DBD
:100D6000F0E02E9FC0012F9F900D3E9F900D11240B
:100D7000840F951F9B838A831A8E5D834C83C901E0
:100D80000197E89F9001E99F300DF89F300D1124E5
:100D9000240F351F3F832E838FEF8D8F8E8F662319
:100DA00061F48885882389F0CE0108960E94FE0EA2
:100DB000813059F40E94150508C0CE0108960E94A2
:100DC0009E03CE0141960E949E030F900FBE81E0CC
:100DD000DF91CF9108950F931F93CF93DF93182F37
:100DE000062F8823F9F08FE190E00E94CC02EC01FD
:100DF0000097D9F0019FC001112401960E94CC02F6
:100E000099838883009741F01B8F0C8FCE0161E09E
:100E10000E94A506CE010BC0CE010E94F50280E023
:100E200090E005C080E090E002C080E090E0DF91BB
:100E3000CF911F910F9108958F929F92BF92CF9261
:100E4000DF92EF92FF920F931F93CF93DF9300D027
:100E50000F920F92CDB7DEB78C014B015D834C83AF
:100E6000B22EFF24EE24E394CC24DD246894C3F84E
:100E7000C80ED91E0FB6F8940F92F801928D838D8B
:100E80009817A8F4C801B4014B2D0E945906F80127
:100E90008189882341F0C80141960E94FE0E81306D
:100EA00011F40E9415050F900FBE81E052C08C8195
:100EB0009D81009721F40F900FBE80E04AC0FF2073
:100EC00029F4CE0101960E94460FFE2C0F900FBE12
:100ED0000E94450C0FB6F8940F92F801858D8F3F54
:100EE00009F4158EF801868D8F3F09F4168E0F9048
:100EF0000FBECE010196BE016C5F7F4F0E94510F65
:100F0000882309F50FB6F8940F92F801928D0F908F
:100F10000FBEF801838D981781F46C817D81C60125
:100F20000E94D20EC8010E940B060E942B0D88233E
:100F300009F0A0CF0E9415059DCFC8010E940B06A5
:100F40000E942B0D97CFC8010E940B060E942B0D0B
:100F500080E00F900F900F900F900F90DF91CF9146
:100F60001F910F91FF90EF90DF90CF90BF909F90D7
:100F70008F900895CF93DF938FE190E00E94CC0291
:100F8000EC010097F9F01B821A82198218821D82E7
:100F90001C821F821E821A8E81E08B8F1C8E8FEF27
:100FA0008D8F8E8FCE0108960E949E03CE014196B2
:100FB0000E949E03CE0160E070E040E050E020E03F
:100FC0000E941C078C2F9D2FDF91CF9108950F93C6
:100FD0001F93CF93DF93EC018A019A8D8B8D981725
:100FE000E0F4CE01422F0E9459068E8D8F3F81F48E
:100FF00089898823A1F0CE0141960E94FE0E8823A4
:1010000081F00115110579F081E0F80180830CC0B1
:101010008E8D8F5F8E8F81E007C080E005C081E0FC
:1010200003C081E001C081E0DF91CF911F910F915A
:1010300008958F929F92BF92CF92DF92EF92FF928C
:101040000F931F93CF93DF9300D00F920F92CDB7E2
:10105000DEB78C014B015D834C83B22EFF24EE245E
:10106000E3940F2EF1E1CF2EDD24F02DC80ED91E12
:101070000FB6F8940F92F801828D8823A1F1E680D3
:10108000F780C801B4010E94DC05BB20D1F4F8014F
:10109000828D8150828F80819181009729F40E94F6
:1010A000AC0FF80193838283F80180858823B9F01F
:1010B000C80108960E94FE0E813089F40E94150531
:1010C0000EC0F801F782E6828189882341F0C801C9
:1010D00041960E94FE0E882311F00E9415050F9084
:1010E0000FBE81E05FC08C819D81009721F40F903D
:1010F0000FBE80E057C0FF2029F4CE0101960E9468
:10110000460FFE2C0F900FBE0E94450C0FB6F894B0
:101110000F92F801858D8F3F09F4158EF801868DA9
:101120008F3F09F4168E0F900FBECE010196BE01BF
:101130006C5F7F4F0E94510F882371F50FB6F894B2
:101140000F92F801828D0F900FBE8823F9F4F801F9
:1011500080819181009751F40FB6F8940F92F801B5
:10116000828193810E94B10F0F900FBE6C817D81AF
:10117000C6010E94D20EC8010E940B060E942B0DD0
:10118000882309F075CF0E94150572CFC8010E940F
:101190000B060E942B0D6CCFC8010E940B060E940B
:1011A0002B0D80E00F900F900F900F900F90DF911C
:1011B000CF911F910F91FF90EF90DF90CF90BF9054
:1011C0009F908F9008950F931F93CF93DF93EC011F
:1011D0008A018A8D8823F1F0CE010E94DC058A8D78
:1011E00081508A8F8D8D8F3F81F488858823A1F06F
:1011F000CE0108960E94FE0E882381F0011511058C
:1012000079F081E0F80180830CC08D8D8F5F8D8F28
:1012100081E007C080E005C081E003C081E001C03B
:1012200081E0DF91CF911F910F9108950FB6F8944F
:101230000F92FC01828D0F900FBE0895FC01828DEC
:101240000895CF93DF93EC01888199810E94F50284
:10125000CE010E94F502DF91CF910895FC01928D9D
:1012600081E0911180E00895FC01228D81E0938D51
:10127000291380E008958CB5836D8CBD8DB5816098
:101280008DBD83E78CBD81E08DBD80EB84B980E1AD
:1012900085B908952C988EBD0DB407FEFDCF80E171
:1012A00085B90895CF93C82F8AE70E944A098C2FE9
:1012B0000E944A09CF91089586E70E944A0908953D
:1012C0001F93CF93DF93C82FD92F14E089910E94E9
:1012D0004A091150D9F7DF91CF911F910895CF930B
:1012E000C62F823089F0833018F4813009F505C0AB
:1012F000833089F08430E1F415C081E00E944A090E
:101300008C2F0E944A0914C082E00E944A098C2F47
:101310000E944A090DC083E00E944A098C2F0E9456
:101320004A0906C084E00E944A098C2F0E944A099B
:10133000CF910895CF93DF938436E0F4282F30E0E7
:101340002A5030404AF0C82FD0E0CA50DF5F8C2FBF
:1013500090E00A97D2F702C0C82FD0E081E00E9447
:101360004A098D2F0E944A0982E00E944A098C2F67
:101370000E944A09DF91CF910895CF93DF9384367D
:10138000E0F4282F30E02A5030404AF0C82FD0E057
:10139000CA50DF5F8C2F90E00A97D2F702C0C82FA7
:1013A000D0E083E00E944A098D2F0E944A0984E020
:1013B0000E944A098C2F0E944A09DF91CF9108951B
:1013C0008230E1F0833028F4882351F0813089F5B0
:1013D0000EC0843009F18430C0F0853051F523C04F
:1013E00087E70E944A0981E00E944A09089587E739
:1013F0000E944A0982E00E944A09089587E70E94F4
:101400004A0984E00E944A09089587E70E944A0930
:1014100088E00E944A09089587E70E944A0980E10E
:101420000E944A09089587E70E944A0980E20E94C3
:101430004A090895CF93DF93EC01E091481AF091A7
:10144000491A938382838091501A9091511AC81738
:10145000D90768F48091531A9091541A6091481AF0
:101460007091491A6E5F7F4F0E94D90317C0809117
:10147000551A9091561A6091481A7091491A6E5FE8
:101480007F4F0E94D9038091050290910602C817F0
:10149000D90720F4D0930602C0930502DF91CF91C3
:1014A0000895C9E5DAE188818230E8F30E941505E4
:1014B000FACF4F925F926F927F928F929F92BF92DC
:1014C000CF92DF92EF92FF920F931F93CF93DF9310
:1014D0002C014B01EA013901B02E8AE290E00E9412
:1014E000CC028C01009709F4E3C0C114D10409F0C7
:1014F000F4C0CE010E94CC026C01F801908F878B62
:10150000009729F4C8010E94F5028FEFD6C0C601EA
:1015100065EA70E0AE010E9449109E012150304002
:10152000F8018789908D6C01C20ED31EC8014996BF
:10153000B40140E150E00E945010F80110A6CB2DFC
:10154000F3E0FB1508F4C3E0F801C68BC1A78824BB
:101550009924689481F8800E911EC4010E94AC0306
:10156000C8010C960E94AC03F8011187008784E043
:1015700090E08C1B910995878487138B028BC601A1
:10158000B201A3010E943D04F80191838083E1141C
:10159000F10419F0F701118300830FB6F8940F924C
:1015A0008091521A8F5F8093521A8091481A9091BD
:1015B000491A0097D9F51093491A0093481A809157
:1015C000521A813009F041C0C0E0D0E0CE01880F4E
:1015D000991F880F991F880F991F8C0F9D1F875A7D
:1015E000954E0E949E032196C430D10579F7CDE730
:1015F000DAE1CE010E949E030F2EF6E8EF2EFAE10B
:10160000FF2EF02DC7010E949E038FE89AE10E94F1
:101610009E0388E99AE10E949E03D093561AC093D4
:10162000551AF092541AE092531A0FC080914E1A34
:10163000882359F4E091481AF091491A8689B8161E
:1016400020F01093491A0093481AF8018689909166
:10165000571A981710F48093571A9091581A9F5F51
:101660009093581A90914F1A981710F480934F1A2C
:1016700090E09C01220F331F220F331F220F331FD4
:10168000820F931F875A954EB4010E94B0030F90AA
:101690000FBE80914E1A882369F0E091481AF091AC
:1016A000491A86898B1540F40E94150581E005C012
:1016B0008FEF03C081E001C081E0DF91CF911F91E6
:1016C0000F91FF90EF90DF90CF90BF909F908F9001
:1016D0007F906F905F904F900895FC01D08EC78AE5
:1016E00016CFFC01828593852AE18839920761F43F
:1016F000248935898AE12F38380741F081E02115A6
:10170000310529F080E0089580E0089580E0089593
:101710000F931F93CF93DF93EC010097B9F1809162
:10172000481A9091491AC817D90781F10FB6F89451
:101730000F92CE010E94710B813031F58E010E5F48
:101740001F4FC8010E9416048E8990914F1A981756
:1017500010F480934F1A90E09C01220F331F220F48
:10176000331F220F331F820F931F875A954EB801E4
:101770000E94B003E091481AF091491A9E89868927
:10178000981710F00E9415050F900FBEDF91CF91B2
:101790001F910F910895EF92FF921F93CF93DF93C4
:1017A000EC010E94710B8130B9F580914D1A8823AC
:1017B00051F5E091481AF091491A11E09E89868905
:1017C000981708F410E0EE24FF246894E1F8EC0E7A
:1017D000FD1EC7010E9416048E8990914F1A98171A
:1017E00010F480934F1A90E09C01220F331F220FB8
:1017F000331F220F331F820F931F875A954EB70155
:101800000E94B0030AC0BE01645F7F4F8FE89AE177
:101810000E94B00310E001C010E0812FDF91CF9152
:101820001F91FF90EF900895AF92BF92CF92DF92F9
:10183000EF92FF920F9381E59AE060E072E045E558
:1018400050E020E030E000E0EE24FF24CC24DD2452
:10185000AA24BB240E94590A813049F4F894809349
:101860004E1A1092511A1092501A0E94D6040F91DB
:10187000FF90EF90DF90CF90BF90AF900895F894D5
:1018800010924E1A0E941405089580914D1A8F5F90
:1018900080934D1A08950FB6F8940F928091501AC4
:1018A0009091511A0F900FBE08958091501A909107
:1018B000511A08958091521A08950F931F93CF9350
:1018C000DF9380914D1A882309F0B3C08091501A9C
:1018D0009091511A01969093511A8093501A8091C9
:1018E000501A9091511A009799F58091551A90913C
:1018F000561A2091531A3091541A3093561A209345
:10190000551A9093541A8093531A80914A1A8F5FF4
:1019100080934A1AE091551AF091561A80818823D3
:1019200039F48FEF9FEF909306028093050210C069
:10193000E091551AF091561A0580F681E02D068047
:10194000F781E02D828193819093060280930502B6
:101950002091501A3091511A8091050290910602FF
:101960002817390708F46CC0E091551AF091561AFF
:101970008081882399F0E091551AF091561A0580DC
:10198000F681E02DC681D7818A819B812091501AF2
:101990003091511A28173907F8F419C08FEF9FEFCB
:1019A00090930602809305024BC0E091551AF09186
:1019B000561A0580F681E02DC681D7818A819B81E8
:1019C0002091501A3091511A2817390728F4909312
:1019D00006028093050234C08E010E5F1F4FC801BE
:1019E0000E9416048C899D89009721F0CE010C96E7
:1019F0000E9416048E8990914F1A981710F48093C4
:101A00004F1A90E09C01220F331F220F331F220F29
:101A1000331F820F931F875A954EB8010E94B0035F
:101A2000E091551AF091561A8081882309F0BDCFB4
:101A3000B5CF80914C1A8F5F80934C1A0E949D0302
:101A400080914C1A882311F40E949D03DF91CF915D
:101A50001F910F910895AF92BF92CF92DF92EF92B4
:101A6000FF920F931F93CF93DF930FB6F8940F92CB
:101A700080914D1A815080934D1A80914D1A882380
:101A800009F069C08091521A882381F567C0D60198
:101A9000ED91FC91C681D781CE010C960E9416046F
:101AA0008E010E5F1F4FC8010E9416048E8990910F
:101AB0004F1A981710F480934F1A90E09C01220F50
:101AC000331F220F331F220F331F820F931F875A9A
:101AD000954EB8010E94B003E091481AF091491A5E
:101AE0009E898689981788F0BA2C0FC0BB240F2EC8
:101AF000FFE8EF2EFAE1FF2EF02D0F2EF4E9CF2EA6
:101B0000FAE1DF2EF02DAA24A394F7018081882327
:101B100009F0BDCF80914C1A882381F080914C1A36
:101B2000882399F00E945D0C80914C1A815080931B
:101B30004C1A80914C1A8823A9F707C0F1E0BF1610
:101B400021F080914B1A813041F410924B1A0E947F
:101B5000150581E003C080E001C080E00F900FBE5A
:101B6000DF91CF911F910F91FF90EF90DF90CF9079
:101B7000BF90AF900895CF93DF93EC010097B1F041
:101B80000E94450C8091501A9091511AC80FD91F8C
:101B90008091481A9091491A02960E941604CE012B
:101BA0000E941A0A0E942B0D882311F40E94150529
:101BB000DF91CF9108950F931F93CF93DF938C0103
:101BC000EB010E94450CF80180819181C80FD91F5B
:101BD0002091501A3091511A2817390768F4C81704
:101BE000D90750F58091501A9091511AD183C08332
:101BF0008C179D07B0F40BC0C817D907C8F08091A7
:101C0000501A9091511A8C179D0790F015C0809131
:101C1000481A9091491A02960E941604CE010E9419
:101C20001A0A0E942B0D882359F40E94150508C03A
:101C3000F801D183C083EBCFF801D183C083F1CF0A
:101C4000DF91CF911F910F91089580914D1A8823B4
:101C500099F480914F1A90E0FC01EE0FFF1FEE0FF8
:101C6000FF1FEE0FFF1F8E0F9F1FFC01E75AF54E5F
:101C70008081882329F01BC081E080934B1A08954E
:101C800080914F1A815080934F1A80914F1A90E0A3
:101C9000FC01EE0FFF1FEE0FFF1FEE0FFF1F8E0F59
:101CA0009F1FFC01E75AF54E8081882349F38091FC
:101CB0004F1A90E0FC01EE0FFF1FEE0FFF1FEE0F1B
:101CC000FF1FE80FF91FE75AF54EA181B281129666
:101CD0000D90BC91A02DB283A183CF010396A817CC
:101CE000B90731F412968D919C9113979283818359
:101CF0000180F281E02D868197819093491A80932B
:101D0000481A0895EF92FF920F931F93CF93DF939A
:101D10007C010FB6F8940F928091481A9091491A5D
:101D2000E816F90621F0E114F10441F402C0EE24B2
:101D3000FF24C091481AD091491A01C0E7018E01D1
:101D40000E5F1F4FC8010E9416048C899D89009761
:101D500021F0CE010C960E94160488E99AE1B801A0
:101D60000E94B0030F900FBEE114F104A1F4809122
:101D70004E1A882319F00E9415050DC09091981AEB
:101D80008091521A981729F41092491A1092481A01
:101D900002C00E94250EDF91CF911F910F91FF90FD
:101DA000EF900895CF93DF93EB016091481A709103
:101DB000491A645F7F4F0E94D9038091481A90911D
:101DC000491A02960E9416048FEFCF3FD80759F4A4
:101DD0006091481A7091491A6E5F7F4F88E99AE1C5
:101DE0000E94B00308C08091501A9091511A8C0F34
:101DF0009D1F0E941A0ADF91CF9108950F931F93A0
:101E0000CF93DF93DC011596ED91FC911697068137
:101E10001781E8012C96CE010E94160480914D1A7C
:101E20008823E9F4E8012296CE010E941604F80105
:101E3000868990914F1A981710F480934F1A90E06A
:101E40009C01220F331F220F331F220F331F820FDB
:101E5000931F875A954EBE010E94B00305C08FE8BC
:101E60009AE1BE010E94B003E091481AF091491A2C
:101E700081E0D80156962C9156979689291708F437
:101E800080E0DF91CF911F910F910895FC01809127
:101E90004A1A80838091501A9091511A92838183BB
:101EA0000895FC01DB010FB6F8940F924D915C91FF
:101EB00011976FEF4F3F560751F180914A1A908169
:101EC000981749F02091501A3091511A81819281CE
:101ED00028173907F0F48091501A9091511A2181F6
:101EE0003281821B930B84179507A8F48091501AB6
:101EF0009091511AB901681B790BCB01840F951F82
:101F00008D939C93CF010E94460F80E005C080E036
:101F100003C081E001C081E00F900FBE089581E011
:101F200080934B1A0895009729F4E091481AF09194
:101F3000491A01C0FC010788F08DE02D8081853AA7
:101F400041F4319680E090E001962191253AE1F349
:101F5000089580E090E008958091481A9091491A80
:101F600008950F931F93CF93DF93EC01009709F42B
:101F70004DC08E89E091481AF091491A96898917C7
:101F800008F044C0E091481AF091491A968924E07B
:101F900030E0291B31093D872C8790E09C01220FFE
:101FA000331F220F331F220F331F820F931F875AB5
:101FB000954E2A853B852817390711F58E010E5F4E
:101FC0001F4FC8010E941604E091481AF091491A67
:101FD00086898E8B90914F1A981710F480934F1A20
:101FE00090E09C01220F331F220F331F220F331F5B
:101FF000820F931F875A954EB8010E94B00306C006
:10200000E091481AF091491A86898E8BDF91CF9121
:102010001F910F9108950F931F93CF93DF93EC01BE
:10202000009749F19E8989A5981729F18E010E5FC5
:102030001F4FC8010E94160449A54E8B242F30E083
:1020400084E090E0821B930B9D878C8780914F1AD0
:10205000841710F440934F1AC901880F991F880FF5
:10206000991F880F991F280F391FC901875A954E4C
:10207000B8010E94B003DF91CF911F910F91089595
:10208000FB01DC0102C001900D9241505040D8F795
:102090000895DC0101C06D9341505040E0F7089570
:1020A000FB01DC014150504048F001900D920020AE
:1020B000C9F701C01D9241505040E0F70895F894CF
:0220C000FFCF50
:0820C20049444C4500FFFF00FA
:00000001FF
